{"abi":[{"type":"constructor","inputs":[{"name":"projectWallet_","type":"address","internalType":"address"},{"name":"feeWei_","type":"uint256","internalType":"uint256"},{"name":"usdtToken_","type":"address","internalType":"address"},{"name":"aioToken_","type":"address","internalType":"address"},{"name":"owner_","type":"address","internalType":"address"}],"stateMutability":"nonpayable"},{"type":"receive","stateMutability":"payable"},{"type":"function","name":"DEFAULT_ADMIN_ROLE","inputs":[],"outputs":[{"name":"","type":"bytes32","internalType":"bytes32"}],"stateMutability":"view"},{"type":"function","name":"PARAM_SETTER_ROLE","inputs":[],"outputs":[{"name":"","type":"bytes32","internalType":"bytes32"}],"stateMutability":"view"},{"type":"function","name":"aioToken","inputs":[],"outputs":[{"name":"","type":"address","internalType":"address"}],"stateMutability":"view"},{"type":"function","name":"collectAio","inputs":[{"name":"amount","type":"uint256","internalType":"uint256"}],"outputs":[],"stateMutability":"nonpayable"},{"type":"function","name":"collectErc20","inputs":[{"name":"token","type":"address","internalType":"address"},{"name":"amount","type":"uint256","internalType":"uint256"}],"outputs":[],"stateMutability":"nonpayable"},{"type":"function","name":"collectEth","inputs":[],"outputs":[],"stateMutability":"payable"},{"type":"function","name":"collectUsdt","inputs":[{"name":"amount","type":"uint256","internalType":"uint256"}],"outputs":[],"stateMutability":"nonpayable"},{"type":"function","name":"enableGovernanceMode","inputs":[{"name":"timelock","type":"address","internalType":"address"},{"name":"paramSetter","type":"address","internalType":"address"}],"outputs":[],"stateMutability":"nonpayable"},{"type":"function","name":"feeWei","inputs":[],"outputs":[{"name":"","type":"uint256","internalType":"uint256"}],"stateMutability":"view"},{"type":"function","name":"getRoleAdmin","inputs":[{"name":"role","type":"bytes32","internalType":"bytes32"}],"outputs":[{"name":"","type":"bytes32","internalType":"bytes32"}],"stateMutability":"view"},{"type":"function","name":"governanceModeEnabled","inputs":[],"outputs":[{"name":"","type":"bool","internalType":"bool"}],"stateMutability":"view"},{"type":"function","name":"grantRole","inputs":[{"name":"role","type":"bytes32","internalType":"bytes32"},{"name":"account","type":"address","internalType":"address"}],"outputs":[],"stateMutability":"nonpayable"},{"type":"function","name":"hasRole","inputs":[{"name":"role","type":"bytes32","internalType":"bytes32"},{"name":"account","type":"address","internalType":"address"}],"outputs":[{"name":"","type":"bool","internalType":"bool"}],"stateMutability":"view"},{"type":"function","name":"owner","inputs":[],"outputs":[{"name":"","type":"address","internalType":"address"}],"stateMutability":"view"},{"type":"function","name":"projectWallet","inputs":[],"outputs":[{"name":"","type":"address","internalType":"address"}],"stateMutability":"view"},{"type":"function","name":"renounceOwnership","inputs":[],"outputs":[],"stateMutability":"nonpayable"},{"type":"function","name":"renounceRole","inputs":[{"name":"role","type":"bytes32","internalType":"bytes32"},{"name":"callerConfirmation","type":"address","internalType":"address"}],"outputs":[],"stateMutability":"nonpayable"},{"type":"function","name":"revokeRole","inputs":[{"name":"role","type":"bytes32","internalType":"bytes32"},{"name":"account","type":"address","internalType":"address"}],"outputs":[],"stateMutability":"nonpayable"},{"type":"function","name":"setAioToken","inputs":[{"name":"newAioToken","type":"address","internalType":"address"}],"outputs":[],"stateMutability":"nonpayable"},{"type":"function","name":"setFeeWei","inputs":[{"name":"newFeeWei","type":"uint256","internalType":"uint256"}],"outputs":[],"stateMutability":"nonpayable"},{"type":"function","name":"setProjectWallet","inputs":[{"name":"newWallet","type":"address","internalType":"address"}],"outputs":[],"stateMutability":"nonpayable"},{"type":"function","name":"setTrustedBootstrapper","inputs":[{"name":"bootstrapper","type":"address","internalType":"address"}],"outputs":[],"stateMutability":"nonpayable"},{"type":"function","name":"setUsdtToken","inputs":[{"name":"newUsdtToken","type":"address","internalType":"address"}],"outputs":[],"stateMutability":"nonpayable"},{"type":"function","name":"supportsInterface","inputs":[{"name":"interfaceId","type":"bytes4","internalType":"bytes4"}],"outputs":[{"name":"","type":"bool","internalType":"bool"}],"stateMutability":"view"},{"type":"function","name":"transferOwnership","inputs":[{"name":"newOwner","type":"address","internalType":"address"}],"outputs":[],"stateMutability":"nonpayable"},{"type":"function","name":"trustedBootstrapper","inputs":[],"outputs":[{"name":"","type":"address","internalType":"address"}],"stateMutability":"view"},{"type":"function","name":"usdtToken","inputs":[],"outputs":[{"name":"","type":"address","internalType":"address"}],"stateMutability":"view"},{"type":"event","name":"AioTokenUpdated","inputs":[{"name":"newAioToken","type":"address","indexed":true,"internalType":"address"}],"anonymous":false},{"type":"event","name":"FeeCollected","inputs":[{"name":"payer","type":"address","indexed":true,"internalType":"address"},{"name":"amount","type":"uint256","indexed":false,"internalType":"uint256"}],"anonymous":false},{"type":"event","name":"FeeWeiUpdated","inputs":[{"name":"newFeeWei","type":"uint256","indexed":false,"internalType":"uint256"}],"anonymous":false},{"type":"event","name":"Forwarded","inputs":[{"name":"to","type":"address","indexed":true,"internalType":"address"},{"name":"amount","type":"uint256","indexed":false,"internalType":"uint256"}],"anonymous":false},{"type":"event","name":"GovernanceModeEnabled","inputs":[{"name":"timelock","type":"address","indexed":true,"internalType":"address"},{"name":"paramSetter","type":"address","indexed":true,"internalType":"address"}],"anonymous":false},{"type":"event","name":"OwnershipTransferred","inputs":[{"name":"previousOwner","type":"address","indexed":true,"internalType":"address"},{"name":"newOwner","type":"address","indexed":true,"internalType":"address"}],"anonymous":false},{"type":"event","name":"ProjectWalletUpdated","inputs":[{"name":"newWallet","type":"address","indexed":true,"internalType":"address"}],"anonymous":false},{"type":"event","name":"RoleAdminChanged","inputs":[{"name":"role","type":"bytes32","indexed":true,"internalType":"bytes32"},{"name":"previousAdminRole","type":"bytes32","indexed":true,"internalType":"bytes32"},{"name":"newAdminRole","type":"bytes32","indexed":true,"internalType":"bytes32"}],"anonymous":false},{"type":"event","name":"RoleGranted","inputs":[{"name":"role","type":"bytes32","indexed":true,"internalType":"bytes32"},{"name":"account","type":"address","indexed":true,"internalType":"address"},{"name":"sender","type":"address","indexed":true,"internalType":"address"}],"anonymous":false},{"type":"event","name":"RoleRevoked","inputs":[{"name":"role","type":"bytes32","indexed":true,"internalType":"bytes32"},{"name":"account","type":"address","indexed":true,"internalType":"address"},{"name":"sender","type":"address","indexed":true,"internalType":"address"}],"anonymous":false},{"type":"event","name":"UsdtTokenUpdated","inputs":[{"name":"newUsdtToken","type":"address","indexed":true,"internalType":"address"}],"anonymous":false},{"type":"error","name":"AccessControlBadConfirmation","inputs":[]},{"type":"error","name":"AccessControlUnauthorizedAccount","inputs":[{"name":"account","type":"address","internalType":"address"},{"name":"neededRole","type":"bytes32","internalType":"bytes32"}]},{"type":"error","name":"AddressEmptyCode","inputs":[{"name":"target","type":"address","internalType":"address"}]},{"type":"error","name":"AddressInsufficientBalance","inputs":[{"name":"account","type":"address","internalType":"address"}]},{"type":"error","name":"FailedInnerCall","inputs":[]},{"type":"error","name":"OwnableInvalidOwner","inputs":[{"name":"owner","type":"address","internalType":"address"}]},{"type":"error","name":"OwnableUnauthorizedAccount","inputs":[{"name":"account","type":"address","internalType":"address"}]},{"type":"error","name":"ReentrancyGuardReentrantCall","inputs":[]},{"type":"error","name":"SafeERC20FailedOperation","inputs":[{"name":"token","type":"address","internalType":"address"}]}],"bytecode":{"object":"0x608060405234801562000010575f80fd5b506040516200232b3803806200232b83398101604081905262000033916200032c565b806001600160a01b0381166200006357604051631e4fbdf760e01b81525f60048201526024015b60405180910390fd5b6200006e816200022d565b5060016002556001600160a01b038516620000f25760405162461bcd60e51b815260206004820152603460248201527f4665654469737472696275746f723a2070726f6a65637457616c6c657420636160448201527f6e6e6f74206265207a65726f206164647265737300000000000000000000000060648201526084016200005a565b6001600160a01b038316620001635760405162461bcd60e51b815260206004820152603060248201527f4665654469737472696275746f723a2075736474546f6b656e2063616e6e6f7460448201526f206265207a65726f206164647265737360801b60648201526084016200005a565b6001600160a01b038216620001d35760405162461bcd60e51b815260206004820152602f60248201527f4665654469737472696275746f723a2061696f546f6b656e2063616e6e6f742060448201526e6265207a65726f206164647265737360881b60648201526084016200005a565b600380546001600160a01b038088166001600160a01b0319928316179092556004869055600580548684169083161790556006805492851692909116919091179055620002215f826200027c565b5050505050506200038f565b5f80546001600160a01b038381166001600160a01b0319831681178455604051919092169283917f8be0079c531659141344cd1fd0a4f28419497f9722a3daafe3b4186f6b6457e09190a35050565b5f8281526001602090815260408083206001600160a01b038516845290915281205460ff1662000307575f8381526001602081815260408084206001600160a01b0387168086529252808420805460ff19169093179092559051339286917f2f8788117e7eff1d82e926ec794901d17c78024a50270940304540a733656f0d9190a45060016200030a565b505f5b92915050565b80516001600160a01b038116811462000327575f80fd5b919050565b5f805f805f60a0868803121562000341575f80fd5b6200034c8662000310565b945060208601519350620003636040870162000310565b9250620003736060870162000310565b9150620003836080870162000310565b90509295509295909350565b611f8e806200039d5f395ff3fe6080604052600436106101a7575f3560e01c80638da5cb5b116100e7578063b7b6d6f011610087578063d547741f11610062578063d547741f1461054a578063d7f3c66d14610569578063f2fde38b14610588578063fada5da1146105a7575f80fd5b8063b7b6d6f0146104ce578063bc52900b146104ed578063beb08ab91461051e575f80fd5b80639917d8f8116100c25780639917d8f814610444578063a217fddf14610470578063a98ad46c14610483578063b50a9da8146104af575f80fd5b80638da5cb5b1461039757806391b7cd58146103c057806391d14854146103f3575f80fd5b806336568abe11610152578063466ff79e1161012d578063466ff79e1461032657806365fa88ec14610345578063715018a6146103645780638a78044714610378575f80fd5b806336568abe146102d3578063428c090b146102f2578063440f37a314610307575f80fd5b8063248a9ca311610182578063248a9ca3146102585780632edbf1b4146102955780632f2ff15d146102b4575f80fd5b806301ffc9a7146101b2578063045b1e66146101e657806323b32bf314610207575f80fd5b366101ae57005b5f80fd5b3480156101bd575f80fd5b506101d16101cc366004611dfc565b6105af565b60405190151581526020015b60405180910390f35b3480156101f1575f80fd5b50610205610200366004611e3b565b610647565b005b348015610212575f80fd5b506007546102339073ffffffffffffffffffffffffffffffffffffffff1681565b60405173ffffffffffffffffffffffffffffffffffffffff90911681526020016101dd565b348015610263575f80fd5b50610287610272366004611e3b565b5f908152600160208190526040909120015490565b6040519081526020016101dd565b3480156102a0575f80fd5b506102056102af366004611e3b565b6107c1565b3480156102bf575f80fd5b506102056102ce366004611e7a565b610804565b3480156102de575f80fd5b506102056102ed366004611e7a565b61082f565b3480156102fd575f80fd5b5061028760045481565b348015610312575f80fd5b50610205610321366004611ea4565b61088d565b348015610331575f80fd5b50610205610340366004611e3b565b6109a6565b348015610350575f80fd5b5061020561035f366004611ea4565b610a62565b34801561036f575f80fd5b50610205610b82565b348015610383575f80fd5b50610205610392366004611ea4565b610b95565b3480156103a2575f80fd5b505f5473ffffffffffffffffffffffffffffffffffffffff16610233565b3480156103cb575f80fd5b506102877f597b121aab77e221e6a68f35bfe5cd0100f93845c4f871f403c8b3592a44ea0381565b3480156103fe575f80fd5b506101d161040d366004611e7a565b5f91825260016020908152604080842073ffffffffffffffffffffffffffffffffffffffff93909316845291905290205460ff1690565b34801561044f575f80fd5b506006546102339073ffffffffffffffffffffffffffffffffffffffff1681565b34801561047b575f80fd5b506102875f81565b34801561048e575f80fd5b506005546102339073ffffffffffffffffffffffffffffffffffffffff1681565b3480156104ba575f80fd5b506102056104c9366004611ebd565b610cae565b3480156104d9575f80fd5b506102056104e8366004611ee5565b6110ae565b3480156104f8575f80fd5b506006546101d19074010000000000000000000000000000000000000000900460ff1681565b348015610529575f80fd5b506003546102339073ffffffffffffffffffffffffffffffffffffffff1681565b348015610555575f80fd5b50610205610564366004611e7a565b6112c5565b348015610574575f80fd5b50610205610583366004611ea4565b6112ea565b348015610593575f80fd5b506102056105a2366004611ea4565b611403565b610205611463565b5f7fffffffff0000000000000000000000000000000000000000000000000000000082167f7965db0b00000000000000000000000000000000000000000000000000000000148061064157507f01ffc9a7000000000000000000000000000000000000000000000000000000007fffffffff000000000000000000000000000000000000000000000000000000008316145b92915050565b61064f611588565b805f036106e3576040517f08c379a000000000000000000000000000000000000000000000000000000000815260206004820152602560248201527f4665654469737472696275746f723a20616d6f756e742063616e6e6f7420626560448201527f207a65726f00000000000000000000000000000000000000000000000000000060648201526084015b60405180910390fd5b60065473ffffffffffffffffffffffffffffffffffffffff16610708813330856115c9565b60405182815233907f06c5efeff5c320943d265dc4e5f1af95ad523555ce0c1957e367dda5514572df9060200160405180910390a26003546107649073ffffffffffffffffffffffffffffffffffffffff838116911684611652565b60035460405183815273ffffffffffffffffffffffffffffffffffffffff909116907f6f1deddfc28100c291fae8f1064e4a91e844f0841993bb8fba9a913c3b801d809060200160405180910390a2506107be6001600255565b50565b6107c9611690565b60048190556040518181527f39c709d1c431a69e80eb0376e24bcabbcd8c3c3eb7bbd52144f54762bda9bb659060200160405180910390a150565b5f828152600160208190526040909120015461081f81611816565b6108298383611820565b50505050565b73ffffffffffffffffffffffffffffffffffffffff8116331461087e576040517f6697b23200000000000000000000000000000000000000000000000000000000815260040160405180910390fd5b61088882826118e8565b505050565b610895611690565b73ffffffffffffffffffffffffffffffffffffffff8116610938576040517f08c379a000000000000000000000000000000000000000000000000000000000815260206004820152603260248201527f4665654469737472696275746f723a206e657741696f546f6b656e2063616e6e60448201527f6f74206265207a65726f2061646472657373000000000000000000000000000060648201526084016106da565b600680547fffffffffffffffffffffffff00000000000000000000000000000000000000001673ffffffffffffffffffffffffffffffffffffffff83169081179091556040517f4996b2377115c8e5a471146e401822ae4db06617546bb537e3fc47743350e801905f90a250565b6109ae611588565b805f03610a3d576040517f08c379a000000000000000000000000000000000000000000000000000000000815260206004820152602560248201527f4665654469737472696275746f723a20616d6f756e742063616e6e6f7420626560448201527f207a65726f00000000000000000000000000000000000000000000000000000060648201526084016106da565b60055473ffffffffffffffffffffffffffffffffffffffff16610708813330856115c9565b610a6a6119a5565b60065474010000000000000000000000000000000000000000900460ff1615610b3b576040517f08c379a000000000000000000000000000000000000000000000000000000000815260206004820152604560248201527f4665654469737472696275746f723a2063616e6e6f742073657420626f6f747360448201527f7472617070657220616674657220676f7665726e616e6365206d6f646520656e60648201527f61626c6564000000000000000000000000000000000000000000000000000000608482015260a4016106da565b600780547fffffffffffffffffffffffff00000000000000000000000000000000000000001673ffffffffffffffffffffffffffffffffffffffff92909216919091179055565b610b8a6119a5565b610b935f6119f7565b565b610b9d611690565b73ffffffffffffffffffffffffffffffffffffffff8116610c40576040517f08c379a000000000000000000000000000000000000000000000000000000000815260206004820152603060248201527f4665654469737472696275746f723a206e657757616c6c65742063616e6e6f7460448201527f206265207a65726f20616464726573730000000000000000000000000000000060648201526084016106da565b600380547fffffffffffffffffffffffff00000000000000000000000000000000000000001673ffffffffffffffffffffffffffffffffffffffff83169081179091556040517fec859decd72bbc1028a5d9cff18865d253e0a9c46133f5de383c3cd73ab89b65905f90a250565b5f5473ffffffffffffffffffffffffffffffffffffffff163314801590610ced575060075473ffffffffffffffffffffffffffffffffffffffff163314155b15610d7a576040517f08c379a000000000000000000000000000000000000000000000000000000000815260206004820152603f60248201527f4665654469737472696275746f723a2063616c6c6572206973206e6f7420746860448201527f65206f776e6572206f72207472757374656420626f6f7473747261707065720060648201526084016106da565b60075473ffffffffffffffffffffffffffffffffffffffff1633148015610db8575060075473ffffffffffffffffffffffffffffffffffffffff1615155b5060065474010000000000000000000000000000000000000000900460ff1615610e64576040517f08c379a000000000000000000000000000000000000000000000000000000000815260206004820152602f60248201527f4665654469737472696275746f723a20676f7665726e616e6365206d6f64652060448201527f616c726561647920656e61626c6564000000000000000000000000000000000060648201526084016106da565b73ffffffffffffffffffffffffffffffffffffffff8216610f07576040517f08c379a000000000000000000000000000000000000000000000000000000000815260206004820152602f60248201527f4665654469737472696275746f723a2074696d656c6f636b2063616e6e6f742060448201527f6265207a65726f2061646472657373000000000000000000000000000000000060648201526084016106da565b73ffffffffffffffffffffffffffffffffffffffff8116610faa576040517f08c379a000000000000000000000000000000000000000000000000000000000815260206004820152603260248201527f4665654469737472696275746f723a20706172616d5365747465722063616e6e60448201527f6f74206265207a65726f2061646472657373000000000000000000000000000060648201526084016106da565b600680547fffffffffffffffffffffff00ffffffffffffffffffffffffffffffffffffffff1674010000000000000000000000000000000000000000179055610ff35f83611820565b5061101e7f597b121aab77e221e6a68f35bfe5cd0100f93845c4f871f403c8b3592a44ea0382611820565b506110465f6110415f5473ffffffffffffffffffffffffffffffffffffffff1690565b6118e8565b50611050826119f7565b8073ffffffffffffffffffffffffffffffffffffffff168273ffffffffffffffffffffffffffffffffffffffff167f636eebd3fa636d132c0642257636a03b90019c563c593d3c831318f9f3a7442960405160405180910390a35050565b6110b6611588565b73ffffffffffffffffffffffffffffffffffffffff8216611159576040517f08c379a000000000000000000000000000000000000000000000000000000000815260206004820152602c60248201527f4665654469737472696275746f723a20746f6b656e2063616e6e6f742062652060448201527f7a65726f2061646472657373000000000000000000000000000000000000000060648201526084016106da565b805f036111e8576040517f08c379a000000000000000000000000000000000000000000000000000000000815260206004820152602560248201527f4665654469737472696275746f723a20616d6f756e742063616e6e6f7420626560448201527f207a65726f00000000000000000000000000000000000000000000000000000060648201526084016106da565b8161120b73ffffffffffffffffffffffffffffffffffffffff82163330856115c9565b60405182815233907f06c5efeff5c320943d265dc4e5f1af95ad523555ce0c1957e367dda5514572df9060200160405180910390a26003546112679073ffffffffffffffffffffffffffffffffffffffff838116911684611652565b60035460405183815273ffffffffffffffffffffffffffffffffffffffff909116907f6f1deddfc28100c291fae8f1064e4a91e844f0841993bb8fba9a913c3b801d809060200160405180910390a2506112c16001600255565b5050565b5f82815260016020819052604090912001546112e081611816565b61082983836118e8565b6112f2611690565b73ffffffffffffffffffffffffffffffffffffffff8116611395576040517f08c379a000000000000000000000000000000000000000000000000000000000815260206004820152603360248201527f4665654469737472696275746f723a206e657755736474546f6b656e2063616e60448201527f6e6f74206265207a65726f20616464726573730000000000000000000000000060648201526084016106da565b600580547fffffffffffffffffffffffff00000000000000000000000000000000000000001673ffffffffffffffffffffffffffffffffffffffff83169081179091556040517f226a7ba1d16ae5ac494acad5148b2c09a33999eaaf803f8c631a749b34f69eb3905f90a250565b61140b6119a5565b73ffffffffffffffffffffffffffffffffffffffff811661145a576040517f1e4fbdf70000000000000000000000000000000000000000000000000000000081525f60048201526024016106da565b6107be816119f7565b61146b611588565b6004543410156114d7576040517f08c379a000000000000000000000000000000000000000000000000000000000815260206004820181905260248201527f4665654469737472696275746f723a20696e73756666696369656e742066656560448201526064016106da565b60405134815233907f06c5efeff5c320943d265dc4e5f1af95ad523555ce0c1957e367dda5514572df9060200160405180910390a260035461152f9073ffffffffffffffffffffffffffffffffffffffff1634611a6b565b60035460405134815273ffffffffffffffffffffffffffffffffffffffff909116907f6f1deddfc28100c291fae8f1064e4a91e844f0841993bb8fba9a913c3b801d809060200160405180910390a2610b936001600255565b60028054036115c3576040517f3ee5aeb500000000000000000000000000000000000000000000000000000000815260040160405180910390fd5b60028055565b60405173ffffffffffffffffffffffffffffffffffffffff84811660248301528381166044830152606482018390526108299186918216906323b872dd906084015b604051602081830303815290604052915060e01b6020820180517bffffffffffffffffffffffffffffffffffffffffffffffffffffffff8381831617835250505050611b3d565b60405173ffffffffffffffffffffffffffffffffffffffff83811660248301526044820183905261088891859182169063a9059cbb9060640161160b565b60065474010000000000000000000000000000000000000000900460ff161561177057335f9081527fdb2d0a3dd5f1671095ae85310ffbb7cc5134b90daea1d7ba34d87ef2c0dd73dc602052604090205460ff16610b93576040517f08c379a000000000000000000000000000000000000000000000000000000000815260206004820152603660248201527f4665654469737472696275746f723a2063616c6c657220646f6573206e6f742060448201527f6861766520504152414d5f5345545445525f524f4c450000000000000000000060648201526084016106da565b5f5473ffffffffffffffffffffffffffffffffffffffff163314610b93576040517f08c379a000000000000000000000000000000000000000000000000000000000815260206004820152602760248201527f4665654469737472696275746f723a2063616c6c6572206973206e6f7420746860448201527f65206f776e65720000000000000000000000000000000000000000000000000060648201526084016106da565b6107be8133611bd1565b5f82815260016020908152604080832073ffffffffffffffffffffffffffffffffffffffff8516845290915281205460ff166118e1575f83815260016020818152604080842073ffffffffffffffffffffffffffffffffffffffff8716808652925280842080547fffffffffffffffffffffffffffffffffffffffffffffffffffffffffffffff00169093179092559051339286917f2f8788117e7eff1d82e926ec794901d17c78024a50270940304540a733656f0d9190a4506001610641565b505f610641565b5f82815260016020908152604080832073ffffffffffffffffffffffffffffffffffffffff8516845290915281205460ff16156118e1575f83815260016020908152604080832073ffffffffffffffffffffffffffffffffffffffff8616808552925280832080547fffffffffffffffffffffffffffffffffffffffffffffffffffffffffffffff0016905551339286917ff6391f5c32d9c69d2a47ea670b442974b53935d1edc7fd64eb21e047a839171b9190a4506001610641565b5f5473ffffffffffffffffffffffffffffffffffffffff163314610b93576040517f118cdaa70000000000000000000000000000000000000000000000000000000081523360048201526024016106da565b5f805473ffffffffffffffffffffffffffffffffffffffff8381167fffffffffffffffffffffffff0000000000000000000000000000000000000000831681178455604051919092169283917f8be0079c531659141344cd1fd0a4f28419497f9722a3daafe3b4186f6b6457e09190a35050565b80471015611aa7576040517fcd7860590000000000000000000000000000000000000000000000000000000081523060048201526024016106da565b5f8273ffffffffffffffffffffffffffffffffffffffff16826040515f6040518083038185875af1925050503d805f8114611afd576040519150601f19603f3d011682016040523d82523d5f602084013e611b02565b606091505b5050905080610888576040517f1425ea4200000000000000000000000000000000000000000000000000000000815260040160405180910390fd5b5f611b5e73ffffffffffffffffffffffffffffffffffffffff841683611c58565b905080515f14158015611b82575080806020019051810190611b809190611f0d565b155b15610888576040517f5274afe700000000000000000000000000000000000000000000000000000000815273ffffffffffffffffffffffffffffffffffffffff841660048201526024016106da565b5f82815260016020908152604080832073ffffffffffffffffffffffffffffffffffffffff8516845290915290205460ff166112c1576040517fe2517d3f00000000000000000000000000000000000000000000000000000000815273ffffffffffffffffffffffffffffffffffffffff82166004820152602481018390526044016106da565b6060611c6583835f611c6c565b9392505050565b606081471015611caa576040517fcd7860590000000000000000000000000000000000000000000000000000000081523060048201526024016106da565b5f808573ffffffffffffffffffffffffffffffffffffffff168486604051611cd29190611f2c565b5f6040518083038185875af1925050503d805f8114611d0c576040519150601f19603f3d011682016040523d82523d5f602084013e611d11565b606091505b5091509150611d21868383611d2b565b9695505050505050565b606082611d4057611d3b82611dba565b611c65565b8151158015611d64575073ffffffffffffffffffffffffffffffffffffffff84163b155b15611db3576040517f9996b31500000000000000000000000000000000000000000000000000000000815273ffffffffffffffffffffffffffffffffffffffff851660048201526024016106da565b5080611c65565b805115611dca5780518082602001fd5b6040517f1425ea4200000000000000000000000000000000000000000000000000000000815260040160405180910390fd5b5f60208284031215611e0c575f80fd5b81357fffffffff0000000000000000000000000000000000000000000000000000000081168114611c65575f80fd5b5f60208284031215611e4b575f80fd5b5035919050565b803573ffffffffffffffffffffffffffffffffffffffff81168114611e75575f80fd5b919050565b5f8060408385031215611e8b575f80fd5b82359150611e9b60208401611e52565b90509250929050565b5f60208284031215611eb4575f80fd5b611c6582611e52565b5f8060408385031215611ece575f80fd5b611ed783611e52565b9150611e9b60208401611e52565b5f8060408385031215611ef6575f80fd5b611eff83611e52565b946020939093013593505050565b5f60208284031215611f1d575f80fd5b81518015158114611c65575f80fd5b5f82515f5b81811015611f4b5760208186018101518583015201611f31565b505f92019182525091905056fea2646970667358221220553e8b6b79a76e6e254cfd82d0f0d2c72bd54b39905c9df6887d6cb5a55d48fd64736f6c63430008180033","linkReferences":{}},"methodIdentifiers":{"DEFAULT_ADMIN_ROLE()":"a217fddf","PARAM_SETTER_ROLE()":"91b7cd58","aioToken()":"9917d8f8","collectAio(uint256)":"045b1e66","collectErc20(address,uint256)":"b7b6d6f0","collectEth()":"fada5da1","collectUsdt(uint256)":"466ff79e","enableGovernanceMode(address,address)":"b50a9da8","feeWei()":"428c090b","getRoleAdmin(bytes32)":"248a9ca3","governanceModeEnabled()":"bc52900b","grantRole(bytes32,address)":"2f2ff15d","hasRole(bytes32,address)":"91d14854","owner()":"8da5cb5b","projectWallet()":"beb08ab9","renounceOwnership()":"715018a6","renounceRole(bytes32,address)":"36568abe","revokeRole(bytes32,address)":"d547741f","setAioToken(address)":"440f37a3","setFeeWei(uint256)":"2edbf1b4","setProjectWallet(address)":"8a780447","setTrustedBootstrapper(address)":"65fa88ec","setUsdtToken(address)":"d7f3c66d","supportsInterface(bytes4)":"01ffc9a7","transferOwnership(address)":"f2fde38b","trustedBootstrapper()":"23b32bf3","usdtToken()":"a98ad46c"},"id":55}