{"abi":[{"type":"constructor","inputs":[{"name":"feeDistributor_","type":"address","internalType":"address"},{"name":"owner_","type":"address","internalType":"address"}],"stateMutability":"nonpayable"},{"type":"function","name":"DEFAULT_ADMIN_ROLE","inputs":[],"outputs":[{"name":"","type":"bytes32","internalType":"bytes32"}],"stateMutability":"view"},{"type":"function","name":"PARAM_SETTER_ROLE","inputs":[],"outputs":[{"name":"","type":"bytes32","internalType":"bytes32"}],"stateMutability":"view"},{"type":"function","name":"aioRewardPool","inputs":[],"outputs":[{"name":"","type":"address","internalType":"address"}],"stateMutability":"view"},{"type":"function","name":"aioToken","inputs":[],"outputs":[{"name":"","type":"address","internalType":"contract IAIOERC20"}],"stateMutability":"view"},{"type":"function","name":"claimAIO","inputs":[{"name":"amount","type":"uint256","internalType":"uint256"}],"outputs":[],"stateMutability":"nonpayable"},{"type":"function","name":"enableGovernanceMode","inputs":[{"name":"admin","type":"address","internalType":"address"},{"name":"paramSetter","type":"address","internalType":"address"}],"outputs":[],"stateMutability":"nonpayable"},{"type":"function","name":"feeDistributor","inputs":[],"outputs":[{"name":"","type":"address","internalType":"contract IFeeDistributor"}],"stateMutability":"view"},{"type":"function","name":"getConfig","inputs":[],"outputs":[{"name":"feeWei_","type":"uint256","internalType":"uint256"},{"name":"feeDistributor_","type":"address","internalType":"address"},{"name":"aioToken_","type":"address","internalType":"address"},{"name":"aioRewardPool_","type":"address","internalType":"address"}],"stateMutability":"view"},{"type":"function","name":"getRoleAdmin","inputs":[{"name":"role","type":"bytes32","internalType":"bytes32"}],"outputs":[{"name":"","type":"bytes32","internalType":"bytes32"}],"stateMutability":"view"},{"type":"function","name":"governanceModeEnabled","inputs":[],"outputs":[{"name":"","type":"bool","internalType":"bool"}],"stateMutability":"view"},{"type":"function","name":"grantRole","inputs":[{"name":"role","type":"bytes32","internalType":"bytes32"},{"name":"account","type":"address","internalType":"address"}],"outputs":[],"stateMutability":"nonpayable"},{"type":"function","name":"hasRole","inputs":[{"name":"role","type":"bytes32","internalType":"bytes32"},{"name":"account","type":"address","internalType":"address"}],"outputs":[{"name":"","type":"bool","internalType":"bool"}],"stateMutability":"view"},{"type":"function","name":"interact","inputs":[{"name":"action","type":"string","internalType":"string"},{"name":"meta","type":"bytes","internalType":"bytes"}],"outputs":[],"stateMutability":"payable"},{"type":"function","name":"owner","inputs":[],"outputs":[{"name":"","type":"address","internalType":"address"}],"stateMutability":"view"},{"type":"function","name":"renounceOwnership","inputs":[],"outputs":[],"stateMutability":"nonpayable"},{"type":"function","name":"renounceRole","inputs":[{"name":"role","type":"bytes32","internalType":"bytes32"},{"name":"callerConfirmation","type":"address","internalType":"address"}],"outputs":[],"stateMutability":"nonpayable"},{"type":"function","name":"revokeRole","inputs":[{"name":"role","type":"bytes32","internalType":"bytes32"},{"name":"account","type":"address","internalType":"address"}],"outputs":[],"stateMutability":"nonpayable"},{"type":"function","name":"setAIORewardPool","inputs":[{"name":"rewardPool_","type":"address","internalType":"address"}],"outputs":[],"stateMutability":"nonpayable"},{"type":"function","name":"setAIOToken","inputs":[{"name":"aioToken_","type":"address","internalType":"address"}],"outputs":[],"stateMutability":"nonpayable"},{"type":"function","name":"setTrustedBootstrapper","inputs":[{"name":"bootstrapper","type":"address","internalType":"address"}],"outputs":[],"stateMutability":"nonpayable"},{"type":"function","name":"supportsInterface","inputs":[{"name":"interfaceId","type":"bytes4","internalType":"bytes4"}],"outputs":[{"name":"","type":"bool","internalType":"bool"}],"stateMutability":"view"},{"type":"function","name":"transferOwnership","inputs":[{"name":"newOwner","type":"address","internalType":"address"}],"outputs":[],"stateMutability":"nonpayable"},{"type":"function","name":"trustedBootstrapper","inputs":[],"outputs":[{"name":"","type":"address","internalType":"address"}],"stateMutability":"view"},{"type":"event","name":"AIOClaimed","inputs":[{"name":"user","type":"address","indexed":true,"internalType":"address"},{"name":"amount","type":"uint256","indexed":true,"internalType":"uint256"}],"anonymous":false},{"type":"event","name":"AIORewardPoolUpdated","inputs":[{"name":"rewardPool_","type":"address","indexed":true,"internalType":"address"}],"anonymous":false},{"type":"event","name":"AIOTokenUpdated","inputs":[{"name":"aioToken_","type":"address","indexed":true,"internalType":"address"}],"anonymous":false},{"type":"event","name":"GovernanceModeEnabled","inputs":[{"name":"admin","type":"address","indexed":true,"internalType":"address"},{"name":"paramSetter","type":"address","indexed":true,"internalType":"address"}],"anonymous":false},{"type":"event","name":"InteractionRecorded","inputs":[{"name":"user","type":"address","indexed":true,"internalType":"address"},{"name":"actionHash","type":"bytes32","indexed":true,"internalType":"bytes32"},{"name":"action","type":"string","indexed":false,"internalType":"string"},{"name":"meta","type":"bytes","indexed":false,"internalType":"bytes"},{"name":"timestamp","type":"uint256","indexed":false,"internalType":"uint256"}],"anonymous":false},{"type":"event","name":"OwnershipTransferred","inputs":[{"name":"previousOwner","type":"address","indexed":true,"internalType":"address"},{"name":"newOwner","type":"address","indexed":true,"internalType":"address"}],"anonymous":false},{"type":"event","name":"RoleAdminChanged","inputs":[{"name":"role","type":"bytes32","indexed":true,"internalType":"bytes32"},{"name":"previousAdminRole","type":"bytes32","indexed":true,"internalType":"bytes32"},{"name":"newAdminRole","type":"bytes32","indexed":true,"internalType":"bytes32"}],"anonymous":false},{"type":"event","name":"RoleGranted","inputs":[{"name":"role","type":"bytes32","indexed":true,"internalType":"bytes32"},{"name":"account","type":"address","indexed":true,"internalType":"address"},{"name":"sender","type":"address","indexed":true,"internalType":"address"}],"anonymous":false},{"type":"event","name":"RoleRevoked","inputs":[{"name":"role","type":"bytes32","indexed":true,"internalType":"bytes32"},{"name":"account","type":"address","indexed":true,"internalType":"address"},{"name":"sender","type":"address","indexed":true,"internalType":"address"}],"anonymous":false},{"type":"error","name":"AccessControlBadConfirmation","inputs":[]},{"type":"error","name":"AccessControlUnauthorizedAccount","inputs":[{"name":"account","type":"address","internalType":"address"},{"name":"neededRole","type":"bytes32","internalType":"bytes32"}]},{"type":"error","name":"OwnableInvalidOwner","inputs":[{"name":"owner","type":"address","internalType":"address"}]},{"type":"error","name":"OwnableUnauthorizedAccount","inputs":[{"name":"account","type":"address","internalType":"address"}]},{"type":"error","name":"ReentrancyGuardReentrantCall","inputs":[]}],"bytecode":{"object":"0x60a060405234801562000010575f80fd5b5060405162001da938038062001da9833981016040819052620000339162000208565b806001600160a01b0381166200006357604051631e4fbdf760e01b81525f60048201526024015b60405180910390fd5b6200006e8162000109565b5060016002556001600160a01b038216620000e75760405162461bcd60e51b815260206004820152603260248201527f496e746572616374696f6e3a206665654469737472696275746f722063616e6e6044820152716f74206265207a65726f206164647265737360701b60648201526084016200005a565b6001600160a01b038216608052620001005f8262000158565b5050506200023e565b5f80546001600160a01b038381166001600160a01b0319831681178455604051919092169283917f8be0079c531659141344cd1fd0a4f28419497f9722a3daafe3b4186f6b6457e09190a35050565b5f8281526001602090815260408083206001600160a01b038516845290915281205460ff16620001e3575f8381526001602081815260408084206001600160a01b0387168086529252808420805460ff19169093179092559051339286917f2f8788117e7eff1d82e926ec794901d17c78024a50270940304540a733656f0d9190a4506001620001e6565b505f5b92915050565b80516001600160a01b038116811462000203575f80fd5b919050565b5f80604083850312156200021a575f80fd5b6200022583620001ec565b91506200023560208401620001ec565b90509250929050565b608051611b36620002735f395f81816101c1015281816108c7015281816109db0152818161118301526112180152611b365ff3fe608060405260043610610178575f3560e01c806391b7cd58116100d1578063b50a9da81161007c578063d4059cb511610057578063d4059cb5146104ed578063d547741f1461050c578063f2fde38b1461052b575f80fd5b8063b50a9da81461044d578063bc52900b1461046c578063c3f909d41461049d575f80fd5b8063a217fddf116100ac578063a217fddf14610408578063aac3ebc01461041b578063aba89a631461042e575f80fd5b806391b7cd581461035857806391d148541461038b5780639917d8f8146103dc575f80fd5b80632f2ff15d11610131578063715018a61161010c578063715018a6146102ef57806378aedfc8146103035780638da5cb5b1461032f575f80fd5b80632f2ff15d1461029257806336568abe146102b157806365fa88ec146102d0575f80fd5b806323b32bf31161016157806323b32bf314610208578063248a9ca3146102345780632811c2bb14610271575f80fd5b806301ffc9a71461017c5780630d43e8ad146101b0575b5f80fd5b348015610187575f80fd5b5061019b61019636600461189f565b61054a565b60405190151581526020015b60405180910390f35b3480156101bb575f80fd5b506101e37f000000000000000000000000000000000000000000000000000000000000000081565b60405173ffffffffffffffffffffffffffffffffffffffff90911681526020016101a7565b348015610213575f80fd5b506005546101e39073ffffffffffffffffffffffffffffffffffffffff1681565b34801561023f575f80fd5b5061026361024e3660046118e5565b5f908152600160208190526040909120015490565b6040519081526020016101a7565b34801561027c575f80fd5b5061029061028b366004611924565b6105e2565b005b34801561029d575f80fd5b506102906102ac36600461193d565b610700565b3480156102bc575f80fd5b506102906102cb36600461193d565b61072b565b3480156102db575f80fd5b506102906102ea366004611924565b610789565b3480156102fa575f80fd5b506102906108a9565b34801561030e575f80fd5b506004546101e39073ffffffffffffffffffffffffffffffffffffffff1681565b34801561033a575f80fd5b505f5473ffffffffffffffffffffffffffffffffffffffff166101e3565b348015610363575f80fd5b506102637f597b121aab77e221e6a68f35bfe5cd0100f93845c4f871f403c8b3592a44ea0381565b348015610396575f80fd5b5061019b6103a536600461193d565b5f91825260016020908152604080842073ffffffffffffffffffffffffffffffffffffffff93909316845291905290205460ff1690565b3480156103e7575f80fd5b506003546101e39073ffffffffffffffffffffffffffffffffffffffff1681565b348015610413575f80fd5b506102635f81565b6102906104293660046119ac565b6108bc565b348015610439575f80fd5b506102906104483660046118e5565b610ab9565b348015610458575f80fd5b50610290610467366004611a13565b610dbc565b348015610477575f80fd5b5060045461019b9074010000000000000000000000000000000000000000900460ff1681565b3480156104a8575f80fd5b506104b161117d565b6040805194855273ffffffffffffffffffffffffffffffffffffffff9384166020860152918316918401919091521660608201526080016101a7565b3480156104f8575f80fd5b50610290610507366004611924565b61125b565b348015610517575f80fd5b5061029061052636600461193d565b611374565b348015610536575f80fd5b50610290610545366004611924565b611399565b5f7fffffffff0000000000000000000000000000000000000000000000000000000082167f7965db0b0000000000000000000000000000000000000000000000000000000014806105dc57507f01ffc9a7000000000000000000000000000000000000000000000000000000007fffffffff000000000000000000000000000000000000000000000000000000008316145b92915050565b6105ea6113f9565b73ffffffffffffffffffffffffffffffffffffffff8116610692576040517f08c379a000000000000000000000000000000000000000000000000000000000815260206004820152602e60248201527f496e746572616374696f6e3a20726577617264506f6f6c2063616e6e6f74206260448201527f65207a65726f206164647265737300000000000000000000000000000000000060648201526084015b60405180910390fd5b600480547fffffffffffffffffffffffff00000000000000000000000000000000000000001673ffffffffffffffffffffffffffffffffffffffff83169081179091556040517f8af6d7119abbc23233d1705a58245345f5aff2e5794293d659c1217e0f71e9b1905f90a250565b5f828152600160208190526040909120015461071b8161157e565b6107258383611588565b50505050565b73ffffffffffffffffffffffffffffffffffffffff8116331461077a576040517f6697b23200000000000000000000000000000000000000000000000000000000815260040160405180910390fd5b6107848282611650565b505050565b61079161170d565b60045474010000000000000000000000000000000000000000900460ff1615610862576040517f08c379a000000000000000000000000000000000000000000000000000000000815260206004820152604260248201527f496e746572616374696f6e3a2063616e6e6f742073657420626f6f747374726160448201527f7070657220616674657220676f7665726e616e6365206d6f646520656e61626c60648201527f6564000000000000000000000000000000000000000000000000000000000000608482015260a401610689565b600580547fffffffffffffffffffffffff00000000000000000000000000000000000000001673ffffffffffffffffffffffffffffffffffffffff92909216919091179055565b6108b161170d565b6108ba5f61175f565b565b6108c46117d3565b5f7f000000000000000000000000000000000000000000000000000000000000000073ffffffffffffffffffffffffffffffffffffffff1663428c090b6040518163ffffffff1660e01b8152600401602060405180830381865afa15801561092e573d5f803e3d5ffd5b505050506040513d601f19601f820116820180604052508101906109529190611a3b565b9050803410156109be576040517f08c379a000000000000000000000000000000000000000000000000000000000815260206004820152601d60248201527f496e746572616374696f6e3a20696e73756666696369656e74206665650000006044820152606401610689565b5f85856040516109cf929190611a52565b604051809103902090507f000000000000000000000000000000000000000000000000000000000000000073ffffffffffffffffffffffffffffffffffffffff1663fada5da1346040518263ffffffff1660e01b81526004015f604051808303818588803b158015610a3f575f80fd5b505af1158015610a51573d5f803e3d5ffd5b5050505050803373ffffffffffffffffffffffffffffffffffffffff167fd149b38bdc70b4650d7f0d5cb5e82886629c6e870cf1bc848bab4df6f8f8ee318888888842604051610aa5959493929190611aa8565b60405180910390a350506107256001600255565b610ac16117d3565b60035473ffffffffffffffffffffffffffffffffffffffff16610b40576040517f08c379a000000000000000000000000000000000000000000000000000000000815260206004820152601e60248201527f496e746572616374696f6e3a2041494f20746f6b656e206e6f742073657400006044820152606401610689565b60045473ffffffffffffffffffffffffffffffffffffffff16610be4576040517f08c379a0000000000000000000000000000000000000000000000000000000008152602060048201526024808201527f496e746572616374696f6e3a2041494f2072657761726420706f6f6c206e6f7460448201527f20736574000000000000000000000000000000000000000000000000000000006064820152608401610689565b805f03610c73576040517f08c379a000000000000000000000000000000000000000000000000000000000815260206004820152602260248201527f496e746572616374696f6e3a20616d6f756e742063616e6e6f74206265207a6560448201527f726f0000000000000000000000000000000000000000000000000000000000006064820152608401610689565b600354600480546040517f23b872dd00000000000000000000000000000000000000000000000000000000815273ffffffffffffffffffffffffffffffffffffffff91821692810192909252336024830152604482018490525f9216906323b872dd906064016020604051808303815f875af1158015610cf5573d5f803e3d5ffd5b505050506040513d601f19601f82011682018060405250810190610d199190611ae1565b905080610d82576040517f08c379a000000000000000000000000000000000000000000000000000000000815260206004820181905260248201527f496e746572616374696f6e3a2041494f207472616e73666572206661696c65646044820152606401610689565b604051829033907f6fa54f0a767012e9d5236faa97878a0e2592640e68d9f5d732aa4d30fee12214905f90a350610db96001600255565b50565b5f5473ffffffffffffffffffffffffffffffffffffffff163314801590610dfb575060055473ffffffffffffffffffffffffffffffffffffffff163314155b15610e88576040517f08c379a000000000000000000000000000000000000000000000000000000000815260206004820152603c60248201527f496e746572616374696f6e3a2063616c6c6572206973206e6f7420746865206f60448201527f776e6572206f72207472757374656420626f6f747374726170706572000000006064820152608401610689565b60045474010000000000000000000000000000000000000000900460ff1615610f33576040517f08c379a000000000000000000000000000000000000000000000000000000000815260206004820152602c60248201527f496e746572616374696f6e3a20676f7665726e616e6365206d6f646520616c7260448201527f6561647920656e61626c656400000000000000000000000000000000000000006064820152608401610689565b73ffffffffffffffffffffffffffffffffffffffff8216610fd6576040517f08c379a000000000000000000000000000000000000000000000000000000000815260206004820152602960248201527f496e746572616374696f6e3a2061646d696e2063616e6e6f74206265207a657260448201527f6f206164647265737300000000000000000000000000000000000000000000006064820152608401610689565b73ffffffffffffffffffffffffffffffffffffffff8116611079576040517f08c379a000000000000000000000000000000000000000000000000000000000815260206004820152602f60248201527f496e746572616374696f6e3a20706172616d5365747465722063616e6e6f742060448201527f6265207a65726f206164647265737300000000000000000000000000000000006064820152608401610689565b600480547fffffffffffffffffffffff00ffffffffffffffffffffffffffffffffffffffff16740100000000000000000000000000000000000000001790556110c25f83611588565b506110ed7f597b121aab77e221e6a68f35bfe5cd0100f93845c4f871f403c8b3592a44ea0382611588565b506111155f6111105f5473ffffffffffffffffffffffffffffffffffffffff1690565b611650565b5061111f8261175f565b8073ffffffffffffffffffffffffffffffffffffffff168273ffffffffffffffffffffffffffffffffffffffff167f636eebd3fa636d132c0642257636a03b90019c563c593d3c831318f9f3a7442960405160405180910390a35050565b5f805f807f000000000000000000000000000000000000000000000000000000000000000073ffffffffffffffffffffffffffffffffffffffff1663428c090b6040518163ffffffff1660e01b8152600401602060405180830381865afa1580156111ea573d5f803e3d5ffd5b505050506040513d601f19601f8201168201806040525081019061120e9190611a3b565b60035460045491967f0000000000000000000000000000000000000000000000000000000000000000965073ffffffffffffffffffffffffffffffffffffffff9182169550911692509050565b6112636113f9565b73ffffffffffffffffffffffffffffffffffffffff8116611306576040517f08c379a000000000000000000000000000000000000000000000000000000000815260206004820152602c60248201527f496e746572616374696f6e3a2061696f546f6b656e2063616e6e6f742062652060448201527f7a65726f206164647265737300000000000000000000000000000000000000006064820152608401610689565b600380547fffffffffffffffffffffffff00000000000000000000000000000000000000001673ffffffffffffffffffffffffffffffffffffffff83169081179091556040517fe0f62c0df26f96720b98083226f174ead8075d99c368ef677f1438ef3fc00457905f90a250565b5f828152600160208190526040909120015461138f8161157e565b6107258383611650565b6113a161170d565b73ffffffffffffffffffffffffffffffffffffffff81166113f0576040517f1e4fbdf70000000000000000000000000000000000000000000000000000000081525f6004820152602401610689565b610db98161175f565b60045474010000000000000000000000000000000000000000900460ff16156114d957335f9081527fdb2d0a3dd5f1671095ae85310ffbb7cc5134b90daea1d7ba34d87ef2c0dd73dc602052604090205460ff166108ba576040517f08c379a000000000000000000000000000000000000000000000000000000000815260206004820152603360248201527f496e746572616374696f6e3a2063616c6c657220646f6573206e6f742068617660448201527f6520504152414d5f5345545445525f524f4c45000000000000000000000000006064820152608401610689565b5f5473ffffffffffffffffffffffffffffffffffffffff1633146108ba576040517f08c379a0000000000000000000000000000000000000000000000000000000008152602060048201526024808201527f496e746572616374696f6e3a2063616c6c6572206973206e6f7420746865206f60448201527f776e6572000000000000000000000000000000000000000000000000000000006064820152608401610689565b610db98133611814565b5f82815260016020908152604080832073ffffffffffffffffffffffffffffffffffffffff8516845290915281205460ff16611649575f83815260016020818152604080842073ffffffffffffffffffffffffffffffffffffffff8716808652925280842080547fffffffffffffffffffffffffffffffffffffffffffffffffffffffffffffff00169093179092559051339286917f2f8788117e7eff1d82e926ec794901d17c78024a50270940304540a733656f0d9190a45060016105dc565b505f6105dc565b5f82815260016020908152604080832073ffffffffffffffffffffffffffffffffffffffff8516845290915281205460ff1615611649575f83815260016020908152604080832073ffffffffffffffffffffffffffffffffffffffff8616808552925280832080547fffffffffffffffffffffffffffffffffffffffffffffffffffffffffffffff0016905551339286917ff6391f5c32d9c69d2a47ea670b442974b53935d1edc7fd64eb21e047a839171b9190a45060016105dc565b5f5473ffffffffffffffffffffffffffffffffffffffff1633146108ba576040517f118cdaa7000000000000000000000000000000000000000000000000000000008152336004820152602401610689565b5f805473ffffffffffffffffffffffffffffffffffffffff8381167fffffffffffffffffffffffff0000000000000000000000000000000000000000831681178455604051919092169283917f8be0079c531659141344cd1fd0a4f28419497f9722a3daafe3b4186f6b6457e09190a35050565b600280540361180e576040517f3ee5aeb500000000000000000000000000000000000000000000000000000000815260040160405180910390fd5b60028055565b5f82815260016020908152604080832073ffffffffffffffffffffffffffffffffffffffff8516845290915290205460ff1661189b576040517fe2517d3f00000000000000000000000000000000000000000000000000000000815273ffffffffffffffffffffffffffffffffffffffff8216600482015260248101839052604401610689565b5050565b5f602082840312156118af575f80fd5b81357fffffffff00000000000000000000000000000000000000000000000000000000811681146118de575f80fd5b9392505050565b5f602082840312156118f5575f80fd5b5035919050565b803573ffffffffffffffffffffffffffffffffffffffff8116811461191f575f80fd5b919050565b5f60208284031215611934575f80fd5b6118de826118fc565b5f806040838503121561194e575f80fd5b8235915061195e602084016118fc565b90509250929050565b5f8083601f840112611977575f80fd5b50813567ffffffffffffffff81111561198e575f80fd5b6020830191508360208285010111156119a5575f80fd5b9250929050565b5f805f80604085870312156119bf575f80fd5b843567ffffffffffffffff808211156119d6575f80fd5b6119e288838901611967565b909650945060208701359150808211156119fa575f80fd5b50611a0787828801611967565b95989497509550505050565b5f8060408385031215611a24575f80fd5b611a2d836118fc565b915061195e602084016118fc565b5f60208284031215611a4b575f80fd5b5051919050565b818382375f9101908152919050565b81835281816020850137505f602082840101525f60207fffffffffffffffffffffffffffffffffffffffffffffffffffffffffffffffe0601f840116840101905092915050565b606081525f611abb606083018789611a61565b8281036020840152611ace818688611a61565b9150508260408301529695505050505050565b5f60208284031215611af1575f80fd5b815180151581146118de575f80fdfea264697066735822122033da01e80ef198461e03b86dd989c32963e8d8e139e6d327677939030456780e64736f6c63430008180033","linkReferences":{}},"methodIdentifiers":{"DEFAULT_ADMIN_ROLE()":"a217fddf","PARAM_SETTER_ROLE()":"91b7cd58","aioRewardPool()":"78aedfc8","aioToken()":"9917d8f8","claimAIO(uint256)":"aba89a63","enableGovernanceMode(address,address)":"b50a9da8","feeDistributor()":"0d43e8ad","getConfig()":"c3f909d4","getRoleAdmin(bytes32)":"248a9ca3","governanceModeEnabled()":"bc52900b","grantRole(bytes32,address)":"2f2ff15d","hasRole(bytes32,address)":"91d14854","interact(string,bytes)":"aac3ebc0","owner()":"8da5cb5b","renounceOwnership()":"715018a6","renounceRole(bytes32,address)":"36568abe","revokeRole(bytes32,address)":"d547741f","setAIORewardPool(address)":"2811c2bb","setAIOToken(address)":"d4059cb5","setTrustedBootstrapper(address)":"65fa88ec","supportsInterface(bytes4)":"01ffc9a7","transferOwnership(address)":"f2fde38b","trustedBootstrapper()":"23b32bf3"},"id":57}