{"abi":[{"type":"constructor","inputs":[{"name":"feeDistributor_","type":"address","internalType":"address"},{"name":"owner_","type":"address","internalType":"address"}],"stateMutability":"nonpayable"},{"type":"function","name":"DEFAULT_ADMIN_ROLE","inputs":[],"outputs":[{"name":"","type":"bytes32","internalType":"bytes32"}],"stateMutability":"view"},{"type":"function","name":"PARAM_SETTER_ROLE","inputs":[],"outputs":[{"name":"","type":"bytes32","internalType":"bytes32"}],"stateMutability":"view"},{"type":"function","name":"actionAllowlist","inputs":[{"name":"","type":"bytes32","internalType":"bytes32"}],"outputs":[{"name":"","type":"bool","internalType":"bool"}],"stateMutability":"view"},{"type":"function","name":"allowlistEnabled","inputs":[],"outputs":[{"name":"","type":"bool","internalType":"bool"}],"stateMutability":"view"},{"type":"function","name":"enableGovernanceMode","inputs":[{"name":"timelock","type":"address","internalType":"address"},{"name":"paramSetter","type":"address","internalType":"address"}],"outputs":[],"stateMutability":"nonpayable"},{"type":"function","name":"feeDistributor","inputs":[],"outputs":[{"name":"","type":"address","internalType":"contract IFeeDistributor"}],"stateMutability":"view"},{"type":"function","name":"getConfig","inputs":[],"outputs":[{"name":"feeWei_","type":"uint256","internalType":"uint256"},{"name":"feeDistributor_","type":"address","internalType":"address"},{"name":"allowlistEnabled_","type":"bool","internalType":"bool"}],"stateMutability":"view"},{"type":"function","name":"getRoleAdmin","inputs":[{"name":"role","type":"bytes32","internalType":"bytes32"}],"outputs":[{"name":"","type":"bytes32","internalType":"bytes32"}],"stateMutability":"view"},{"type":"function","name":"governanceModeEnabled","inputs":[],"outputs":[{"name":"","type":"bool","internalType":"bool"}],"stateMutability":"view"},{"type":"function","name":"grantRole","inputs":[{"name":"role","type":"bytes32","internalType":"bytes32"},{"name":"account","type":"address","internalType":"address"}],"outputs":[],"stateMutability":"nonpayable"},{"type":"function","name":"hasRole","inputs":[{"name":"role","type":"bytes32","internalType":"bytes32"},{"name":"account","type":"address","internalType":"address"}],"outputs":[{"name":"","type":"bool","internalType":"bool"}],"stateMutability":"view"},{"type":"function","name":"interact","inputs":[{"name":"action","type":"string","internalType":"string"},{"name":"meta","type":"bytes","internalType":"bytes"}],"outputs":[],"stateMutability":"payable"},{"type":"function","name":"interact20","inputs":[{"name":"token","type":"address","internalType":"address"},{"name":"amount","type":"uint256","internalType":"uint256"},{"name":"action","type":"string","internalType":"string"},{"name":"meta","type":"bytes","internalType":"bytes"}],"outputs":[],"stateMutability":"nonpayable"},{"type":"function","name":"owner","inputs":[],"outputs":[{"name":"","type":"address","internalType":"address"}],"stateMutability":"view"},{"type":"function","name":"renounceOwnership","inputs":[],"outputs":[],"stateMutability":"nonpayable"},{"type":"function","name":"renounceRole","inputs":[{"name":"role","type":"bytes32","internalType":"bytes32"},{"name":"callerConfirmation","type":"address","internalType":"address"}],"outputs":[],"stateMutability":"nonpayable"},{"type":"function","name":"revokeRole","inputs":[{"name":"role","type":"bytes32","internalType":"bytes32"},{"name":"account","type":"address","internalType":"address"}],"outputs":[],"stateMutability":"nonpayable"},{"type":"function","name":"setActionAllowlist","inputs":[{"name":"actionHash","type":"bytes32","internalType":"bytes32"},{"name":"allowed","type":"bool","internalType":"bool"}],"outputs":[],"stateMutability":"nonpayable"},{"type":"function","name":"setActionAllowlistByString","inputs":[{"name":"action","type":"string","internalType":"string"},{"name":"allowed","type":"bool","internalType":"bool"}],"outputs":[],"stateMutability":"nonpayable"},{"type":"function","name":"setAllowlistEnabled","inputs":[{"name":"enabled","type":"bool","internalType":"bool"}],"outputs":[],"stateMutability":"nonpayable"},{"type":"function","name":"setTrustedBootstrapper","inputs":[{"name":"bootstrapper","type":"address","internalType":"address"}],"outputs":[],"stateMutability":"nonpayable"},{"type":"function","name":"supportsInterface","inputs":[{"name":"interfaceId","type":"bytes4","internalType":"bytes4"}],"outputs":[{"name":"","type":"bool","internalType":"bool"}],"stateMutability":"view"},{"type":"function","name":"transferOwnership","inputs":[{"name":"newOwner","type":"address","internalType":"address"}],"outputs":[],"stateMutability":"nonpayable"},{"type":"function","name":"trustedBootstrapper","inputs":[],"outputs":[{"name":"","type":"address","internalType":"address"}],"stateMutability":"view"},{"type":"event","name":"ActionAllowlistUpdated","inputs":[{"name":"actionHash","type":"bytes32","indexed":true,"internalType":"bytes32"},{"name":"allowed","type":"bool","indexed":false,"internalType":"bool"}],"anonymous":false},{"type":"event","name":"AllowlistToggled","inputs":[{"name":"enabled","type":"bool","indexed":false,"internalType":"bool"}],"anonymous":false},{"type":"event","name":"GovernanceModeEnabled","inputs":[{"name":"timelock","type":"address","indexed":true,"internalType":"address"},{"name":"paramSetter","type":"address","indexed":true,"internalType":"address"}],"anonymous":false},{"type":"event","name":"InteractionRecorded","inputs":[{"name":"user","type":"address","indexed":true,"internalType":"address"},{"name":"actionHash","type":"bytes32","indexed":true,"internalType":"bytes32"},{"name":"action","type":"string","indexed":false,"internalType":"string"},{"name":"meta","type":"bytes","indexed":false,"internalType":"bytes"},{"name":"timestamp","type":"uint256","indexed":false,"internalType":"uint256"}],"anonymous":false},{"type":"event","name":"OwnershipTransferred","inputs":[{"name":"previousOwner","type":"address","indexed":true,"internalType":"address"},{"name":"newOwner","type":"address","indexed":true,"internalType":"address"}],"anonymous":false},{"type":"event","name":"RoleAdminChanged","inputs":[{"name":"role","type":"bytes32","indexed":true,"internalType":"bytes32"},{"name":"previousAdminRole","type":"bytes32","indexed":true,"internalType":"bytes32"},{"name":"newAdminRole","type":"bytes32","indexed":true,"internalType":"bytes32"}],"anonymous":false},{"type":"event","name":"RoleGranted","inputs":[{"name":"role","type":"bytes32","indexed":true,"internalType":"bytes32"},{"name":"account","type":"address","indexed":true,"internalType":"address"},{"name":"sender","type":"address","indexed":true,"internalType":"address"}],"anonymous":false},{"type":"event","name":"RoleRevoked","inputs":[{"name":"role","type":"bytes32","indexed":true,"internalType":"bytes32"},{"name":"account","type":"address","indexed":true,"internalType":"address"},{"name":"sender","type":"address","indexed":true,"internalType":"address"}],"anonymous":false},{"type":"error","name":"AccessControlBadConfirmation","inputs":[]},{"type":"error","name":"AccessControlUnauthorizedAccount","inputs":[{"name":"account","type":"address","internalType":"address"},{"name":"neededRole","type":"bytes32","internalType":"bytes32"}]},{"type":"error","name":"AddressEmptyCode","inputs":[{"name":"target","type":"address","internalType":"address"}]},{"type":"error","name":"AddressInsufficientBalance","inputs":[{"name":"account","type":"address","internalType":"address"}]},{"type":"error","name":"FailedInnerCall","inputs":[]},{"type":"error","name":"OwnableInvalidOwner","inputs":[{"name":"owner","type":"address","internalType":"address"}]},{"type":"error","name":"OwnableUnauthorizedAccount","inputs":[{"name":"account","type":"address","internalType":"address"}]},{"type":"error","name":"ReentrancyGuardReentrantCall","inputs":[]},{"type":"error","name":"SafeERC20FailedOperation","inputs":[{"name":"token","type":"address","internalType":"address"}]}],"bytecode":{"object":"0x60a060405234801562000010575f80fd5b50604051620022af380380620022af833981016040819052620000339162000208565b806001600160a01b0381166200006357604051631e4fbdf760e01b81525f60048201526024015b60405180910390fd5b6200006e8162000109565b5060016002556001600160a01b038216620000e75760405162461bcd60e51b815260206004820152603260248201527f496e746572616374696f6e3a206665654469737472696275746f722063616e6e6044820152716f74206265207a65726f206164647265737360701b60648201526084016200005a565b6001600160a01b038216608052620001005f8262000158565b5050506200023e565b5f80546001600160a01b038381166001600160a01b0319831681178455604051919092169283917f8be0079c531659141344cd1fd0a4f28419497f9722a3daafe3b4186f6b6457e09190a35050565b5f8281526001602090815260408083206001600160a01b038516845290915281205460ff16620001e3575f8381526001602081815260408084206001600160a01b0387168086529252808420805460ff19169093179092559051339286917f2f8788117e7eff1d82e926ec794901d17c78024a50270940304540a733656f0d9190a4506001620001e6565b505f5b92915050565b80516001600160a01b038116811462000203575f80fd5b919050565b5f80604083850312156200021a575f80fd5b6200022583620001ec565b91506200023560208401620001ec565b90509250929050565b608051612027620002885f395f81816101cc01528181610a4101528181610af701528181610bbd01528181610d1f01528181610eb70152818161133401526113c601526120275ff3fe608060405260043610610183575f3560e01c806391d14854116100d1578063bc52900b1161007c578063d547741f11610057578063d547741f146104e9578063d7644ba214610508578063f2fde38b14610527575f80fd5b8063bc52900b1461045c578063c3f909d414610475578063c4741b2e146104bb575f80fd5b8063a217fddf116100ac578063a217fddf14610417578063aac3ebc01461042a578063b50a9da81461043d575f80fd5b806391d148541461038e57806393fd7c2a146103df57806394c8e4ff146103fe575f80fd5b806336568abe11610131578063737f624c1161010c578063737f624c146103135780638da5cb5b1461033257806391b7cd581461035b575f80fd5b806336568abe146102c157806365fa88ec146102e0578063715018a6146102ff575f80fd5b806323b32bf31161016157806323b32bf314610234578063248a9ca3146102655780632f2ff15d146102a2575f80fd5b806301ffc9a7146101875780630d43e8ad146101bb5780632366360914610213575b5f80fd5b348015610192575f80fd5b506101a66101a1366004611c42565b610546565b60405190151581526020015b60405180910390f35b3480156101c6575f80fd5b506101ee7f000000000000000000000000000000000000000000000000000000000000000081565b60405173ffffffffffffffffffffffffffffffffffffffff90911681526020016101b2565b34801561021e575f80fd5b5061023261022d366004611c8e565b6105de565b005b34801561023f575f80fd5b506005546101ee90610100900473ffffffffffffffffffffffffffffffffffffffff1681565b348015610270575f80fd5b5061029461027f366004611cbc565b5f908152600160208190526040909120015490565b6040519081526020016101b2565b3480156102ad575f80fd5b506102326102bc366004611cfb565b61065a565b3480156102cc575f80fd5b506102326102db366004611cfb565b610685565b3480156102eb575f80fd5b506102326102fa366004611d25565b6106e3565b34801561030a575f80fd5b506102326107f5565b34801561031e575f80fd5b5061023261032d366004611d83565b610808565b34801561033d575f80fd5b505f5473ffffffffffffffffffffffffffffffffffffffff166101ee565b348015610366575f80fd5b506102947f597b121aab77e221e6a68f35bfe5cd0100f93845c4f871f403c8b3592a44ea0381565b348015610399575f80fd5b506101a66103a8366004611cfb565b5f91825260016020908152604080842073ffffffffffffffffffffffffffffffffffffffff93909316845291905290205460ff1690565b3480156103ea575f80fd5b506102326103f9366004611e07565b610c7f565b348015610409575f80fd5b506003546101a69060ff1681565b348015610422575f80fd5b506102945f81565b610232610438366004611e5a565b610d14565b348015610448575f80fd5b50610232610457366004611ec1565b610f95565b348015610467575f80fd5b506005546101a69060ff1681565b348015610480575f80fd5b5061048961132f565b6040805193845273ffffffffffffffffffffffffffffffffffffffff90921660208401521515908201526060016101b2565b3480156104c6575f80fd5b506101a66104d5366004611cbc565b60046020525f908152604090205460ff1681565b3480156104f4575f80fd5b50610232610503366004611cfb565b6113f2565b348015610513575f80fd5b50610232610522366004611ee9565b611417565b348015610532575f80fd5b50610232610541366004611d25565b611484565b5f7fffffffff0000000000000000000000000000000000000000000000000000000082167f7965db0b0000000000000000000000000000000000000000000000000000000014806105d857507f01ffc9a7000000000000000000000000000000000000000000000000000000007fffffffff000000000000000000000000000000000000000000000000000000008316145b92915050565b6105e66114e7565b5f8281526004602090815260409182902080547fffffffffffffffffffffffffffffffffffffffffffffffffffffffffffffff0016841515908117909155915191825283917f4522f986b8e14fd0591a15360e60229275a34d3fdb9ee5a15dba05220bbdf30d910160405180910390a25050565b5f828152600160208190526040909120015461067581611654565b61067f838361165e565b50505050565b73ffffffffffffffffffffffffffffffffffffffff811633146106d4576040517f6697b23200000000000000000000000000000000000000000000000000000000815260040160405180910390fd5b6106de8282611726565b505050565b6106eb6117e3565b60055460ff16156107a9576040517f08c379a000000000000000000000000000000000000000000000000000000000815260206004820152604260248201527f496e746572616374696f6e3a2063616e6e6f742073657420626f6f747374726160448201527f7070657220616674657220676f7665726e616e6365206d6f646520656e61626c60648201527f6564000000000000000000000000000000000000000000000000000000000000608482015260a4015b60405180910390fd5b6005805473ffffffffffffffffffffffffffffffffffffffff909216610100027fffffffffffffffffffffff0000000000000000000000000000000000000000ff909216919091179055565b6107fd6117e3565b6108065f611835565b565b6108106118a9565b73ffffffffffffffffffffffffffffffffffffffff86166108b3576040517f08c379a000000000000000000000000000000000000000000000000000000000815260206004820152602960248201527f496e746572616374696f6e3a20746f6b656e2063616e6e6f74206265207a657260448201527f6f2061646472657373000000000000000000000000000000000000000000000060648201526084016107a0565b845f03610942576040517f08c379a000000000000000000000000000000000000000000000000000000000815260206004820152602260248201527f496e746572616374696f6e3a20616d6f756e742063616e6e6f74206265207a6560448201527f726f00000000000000000000000000000000000000000000000000000000000060648201526084016107a0565b5f8484604051610953929190611f04565b60405190819003902060035490915060ff16156109e1575f8181526004602052604090205460ff166109e1576040517f08c379a000000000000000000000000000000000000000000000000000000000815260206004820152601f60248201527f496e746572616374696f6e3a20616374696f6e206e6f7420616c6c6f7765640060448201526064016107a0565b86610a0473ffffffffffffffffffffffffffffffffffffffff821633308a6118ea565b6040517f095ea7b300000000000000000000000000000000000000000000000000000000815273ffffffffffffffffffffffffffffffffffffffff7f0000000000000000000000000000000000000000000000000000000000000000811660048301525f602483015282169063095ea7b3906044016020604051808303815f875af1158015610a95573d5f803e3d5ffd5b505050506040513d601f19601f82011682018060405250810190610ab99190611f13565b506040517f095ea7b300000000000000000000000000000000000000000000000000000000815273ffffffffffffffffffffffffffffffffffffffff7f0000000000000000000000000000000000000000000000000000000000000000811660048301526024820189905282169063095ea7b3906044016020604051808303815f875af1158015610b4c573d5f803e3d5ffd5b505050506040513d601f19601f82011682018060405250810190610b709190611f13565b506040517fb7b6d6f000000000000000000000000000000000000000000000000000000000815273ffffffffffffffffffffffffffffffffffffffff8981166004830152602482018990527f0000000000000000000000000000000000000000000000000000000000000000169063b7b6d6f0906044015f604051808303815f87803b158015610bfe575f80fd5b505af1158015610c10573d5f803e3d5ffd5b50505050813373ffffffffffffffffffffffffffffffffffffffff167fd149b38bdc70b4650d7f0d5cb5e82886629c6e870cf1bc848bab4df6f8f8ee318888888842604051610c63959493929190611f75565b60405180910390a35050610c776001600255565b505050505050565b610c876114e7565b5f8383604051610c98929190611f04565b604080519182900382205f8181526004602090815292902080547fffffffffffffffffffffffffffffffffffffffffffffffffffffffffffffff00168615159081179091558352925082917f4522f986b8e14fd0591a15360e60229275a34d3fdb9ee5a15dba05220bbdf30d910160405180910390a250505050565b610d1c6118a9565b5f7f000000000000000000000000000000000000000000000000000000000000000073ffffffffffffffffffffffffffffffffffffffff1663428c090b6040518163ffffffff1660e01b8152600401602060405180830381865afa158015610d86573d5f803e3d5ffd5b505050506040513d601f19601f82011682018060405250810190610daa9190611fae565b905080341015610e16576040517f08c379a000000000000000000000000000000000000000000000000000000000815260206004820152601d60248201527f496e746572616374696f6e3a20696e73756666696369656e742066656500000060448201526064016107a0565b5f8585604051610e27929190611f04565b60405190819003902060035490915060ff1615610eb5575f8181526004602052604090205460ff16610eb5576040517f08c379a000000000000000000000000000000000000000000000000000000000815260206004820152601f60248201527f496e746572616374696f6e3a20616374696f6e206e6f7420616c6c6f7765640060448201526064016107a0565b7f000000000000000000000000000000000000000000000000000000000000000073ffffffffffffffffffffffffffffffffffffffff1663fada5da1346040518263ffffffff1660e01b81526004015f604051808303818588803b158015610f1b575f80fd5b505af1158015610f2d573d5f803e3d5ffd5b5050505050803373ffffffffffffffffffffffffffffffffffffffff167fd149b38bdc70b4650d7f0d5cb5e82886629c6e870cf1bc848bab4df6f8f8ee318888888842604051610f81959493929190611f75565b60405180910390a3505061067f6001600255565b5f5473ffffffffffffffffffffffffffffffffffffffff163314801590610fd95750600554610100900473ffffffffffffffffffffffffffffffffffffffff163314155b15611066576040517f08c379a000000000000000000000000000000000000000000000000000000000815260206004820152603c60248201527f496e746572616374696f6e3a2063616c6c6572206973206e6f7420746865206f60448201527f776e6572206f72207472757374656420626f6f7473747261707065720000000060648201526084016107a0565b60055460ff16156110f9576040517f08c379a000000000000000000000000000000000000000000000000000000000815260206004820152602c60248201527f496e746572616374696f6e3a20676f7665726e616e6365206d6f646520616c7260448201527f6561647920656e61626c6564000000000000000000000000000000000000000060648201526084016107a0565b73ffffffffffffffffffffffffffffffffffffffff821661119c576040517f08c379a000000000000000000000000000000000000000000000000000000000815260206004820152602c60248201527f496e746572616374696f6e3a2074696d656c6f636b2063616e6e6f742062652060448201527f7a65726f2061646472657373000000000000000000000000000000000000000060648201526084016107a0565b73ffffffffffffffffffffffffffffffffffffffff811661123f576040517f08c379a000000000000000000000000000000000000000000000000000000000815260206004820152602f60248201527f496e746572616374696f6e3a20706172616d5365747465722063616e6e6f742060448201527f6265207a65726f2061646472657373000000000000000000000000000000000060648201526084016107a0565b600580547fffffffffffffffffffffffffffffffffffffffffffffffffffffffffffffff001660011790556112745f8361165e565b5061129f7f597b121aab77e221e6a68f35bfe5cd0100f93845c4f871f403c8b3592a44ea038261165e565b506112c75f6112c25f5473ffffffffffffffffffffffffffffffffffffffff1690565b611726565b506112d182611835565b8073ffffffffffffffffffffffffffffffffffffffff168273ffffffffffffffffffffffffffffffffffffffff167f636eebd3fa636d132c0642257636a03b90019c563c593d3c831318f9f3a7442960405160405180910390a35050565b5f805f7f000000000000000000000000000000000000000000000000000000000000000073ffffffffffffffffffffffffffffffffffffffff1663428c090b6040518163ffffffff1660e01b8152600401602060405180830381865afa15801561139b573d5f803e3d5ffd5b505050506040513d601f19601f820116820180604052508101906113bf9190611fae565b60035490947f0000000000000000000000000000000000000000000000000000000000000000945060ff90911692509050565b5f828152600160208190526040909120015461140d81611654565b61067f8383611726565b61141f6114e7565b600380547fffffffffffffffffffffffffffffffffffffffffffffffffffffffffffffff00168215159081179091556040519081527f66538806474f0d93f78ec4085a1d343732ef04874ebdcb6608a2841f4a83738a9060200160405180910390a150565b61148c6117e3565b73ffffffffffffffffffffffffffffffffffffffff81166114db576040517f1e4fbdf70000000000000000000000000000000000000000000000000000000081525f60048201526024016107a0565b6114e481611835565b50565b60055460ff16156115af57335f9081527fdb2d0a3dd5f1671095ae85310ffbb7cc5134b90daea1d7ba34d87ef2c0dd73dc602052604090205460ff16610806576040517f08c379a000000000000000000000000000000000000000000000000000000000815260206004820152603360248201527f496e746572616374696f6e3a2063616c6c657220646f6573206e6f742068617660448201527f6520504152414d5f5345545445525f524f4c450000000000000000000000000060648201526084016107a0565b5f5473ffffffffffffffffffffffffffffffffffffffff163314610806576040517f08c379a0000000000000000000000000000000000000000000000000000000008152602060048201526024808201527f496e746572616374696f6e3a2063616c6c6572206973206e6f7420746865206f60448201527f776e65720000000000000000000000000000000000000000000000000000000060648201526084016107a0565b6114e4813361197f565b5f82815260016020908152604080832073ffffffffffffffffffffffffffffffffffffffff8516845290915281205460ff1661171f575f83815260016020818152604080842073ffffffffffffffffffffffffffffffffffffffff8716808652925280842080547fffffffffffffffffffffffffffffffffffffffffffffffffffffffffffffff00169093179092559051339286917f2f8788117e7eff1d82e926ec794901d17c78024a50270940304540a733656f0d9190a45060016105d8565b505f6105d8565b5f82815260016020908152604080832073ffffffffffffffffffffffffffffffffffffffff8516845290915281205460ff161561171f575f83815260016020908152604080832073ffffffffffffffffffffffffffffffffffffffff8616808552925280832080547fffffffffffffffffffffffffffffffffffffffffffffffffffffffffffffff0016905551339286917ff6391f5c32d9c69d2a47ea670b442974b53935d1edc7fd64eb21e047a839171b9190a45060016105d8565b5f5473ffffffffffffffffffffffffffffffffffffffff163314610806576040517f118cdaa70000000000000000000000000000000000000000000000000000000081523360048201526024016107a0565b5f805473ffffffffffffffffffffffffffffffffffffffff8381167fffffffffffffffffffffffff0000000000000000000000000000000000000000831681178455604051919092169283917f8be0079c531659141344cd1fd0a4f28419497f9722a3daafe3b4186f6b6457e09190a35050565b60028054036118e4576040517f3ee5aeb500000000000000000000000000000000000000000000000000000000815260040160405180910390fd5b60028055565b6040805173ffffffffffffffffffffffffffffffffffffffff85811660248301528416604482015260648082018490528251808303909101815260849091019091526020810180517bffffffffffffffffffffffffffffffffffffffffffffffffffffffff167f23b872dd0000000000000000000000000000000000000000000000000000000017905261067f908590611a0a565b5f82815260016020908152604080832073ffffffffffffffffffffffffffffffffffffffff8516845290915290205460ff16611a06576040517fe2517d3f00000000000000000000000000000000000000000000000000000000815273ffffffffffffffffffffffffffffffffffffffff82166004820152602481018390526044016107a0565b5050565b5f611a2b73ffffffffffffffffffffffffffffffffffffffff841683611a9e565b905080515f14158015611a4f575080806020019051810190611a4d9190611f13565b155b156106de576040517f5274afe700000000000000000000000000000000000000000000000000000000815273ffffffffffffffffffffffffffffffffffffffff841660048201526024016107a0565b6060611aab83835f611ab2565b9392505050565b606081471015611af0576040517fcd7860590000000000000000000000000000000000000000000000000000000081523060048201526024016107a0565b5f808573ffffffffffffffffffffffffffffffffffffffff168486604051611b189190611fc5565b5f6040518083038185875af1925050503d805f8114611b52576040519150601f19603f3d011682016040523d82523d5f602084013e611b57565b606091505b5091509150611b67868383611b71565b9695505050505050565b606082611b8657611b8182611c00565b611aab565b8151158015611baa575073ffffffffffffffffffffffffffffffffffffffff84163b155b15611bf9576040517f9996b31500000000000000000000000000000000000000000000000000000000815273ffffffffffffffffffffffffffffffffffffffff851660048201526024016107a0565b5080611aab565b805115611c105780518082602001fd5b6040517f1425ea4200000000000000000000000000000000000000000000000000000000815260040160405180910390fd5b5f60208284031215611c52575f80fd5b81357fffffffff0000000000000000000000000000000000000000000000000000000081168114611aab575f80fd5b80151581146114e4575f80fd5b5f8060408385031215611c9f575f80fd5b823591506020830135611cb181611c81565b809150509250929050565b5f60208284031215611ccc575f80fd5b5035919050565b803573ffffffffffffffffffffffffffffffffffffffff81168114611cf6575f80fd5b919050565b5f8060408385031215611d0c575f80fd5b82359150611d1c60208401611cd3565b90509250929050565b5f60208284031215611d35575f80fd5b611aab82611cd3565b5f8083601f840112611d4e575f80fd5b50813567ffffffffffffffff811115611d65575f80fd5b602083019150836020828501011115611d7c575f80fd5b9250929050565b5f805f805f8060808789031215611d98575f80fd5b611da187611cd3565b955060208701359450604087013567ffffffffffffffff80821115611dc4575f80fd5b611dd08a838b01611d3e565b90965094506060890135915080821115611de8575f80fd5b50611df589828a01611d3e565b979a9699509497509295939492505050565b5f805f60408486031215611e19575f80fd5b833567ffffffffffffffff811115611e2f575f80fd5b611e3b86828701611d3e565b9094509250506020840135611e4f81611c81565b809150509250925092565b5f805f8060408587031215611e6d575f80fd5b843567ffffffffffffffff80821115611e84575f80fd5b611e9088838901611d3e565b90965094506020870135915080821115611ea8575f80fd5b50611eb587828801611d3e565b95989497509550505050565b5f8060408385031215611ed2575f80fd5b611edb83611cd3565b9150611d1c60208401611cd3565b5f60208284031215611ef9575f80fd5b8135611aab81611c81565b818382375f9101908152919050565b5f60208284031215611f23575f80fd5b8151611aab81611c81565b81835281816020850137505f602082840101525f60207fffffffffffffffffffffffffffffffffffffffffffffffffffffffffffffffe0601f840116840101905092915050565b606081525f611f88606083018789611f2e565b8281036020840152611f9b818688611f2e565b9150508260408301529695505050505050565b5f60208284031215611fbe575f80fd5b5051919050565b5f82515f5b81811015611fe45760208186018101518583015201611fca565b505f92019182525091905056fea26469706673582212202a2457c4e096ebffcec8f8e0b9ad28ce33118d24373d43de14889fdc132816bc64736f6c63430008180033","linkReferences":{}},"methodIdentifiers":{"DEFAULT_ADMIN_ROLE()":"a217fddf","PARAM_SETTER_ROLE()":"91b7cd58","actionAllowlist(bytes32)":"c4741b2e","allowlistEnabled()":"94c8e4ff","enableGovernanceMode(address,address)":"b50a9da8","feeDistributor()":"0d43e8ad","getConfig()":"c3f909d4","getRoleAdmin(bytes32)":"248a9ca3","governanceModeEnabled()":"bc52900b","grantRole(bytes32,address)":"2f2ff15d","hasRole(bytes32,address)":"91d14854","interact(string,bytes)":"aac3ebc0","interact20(address,uint256,string,bytes)":"737f624c","owner()":"8da5cb5b","renounceOwnership()":"715018a6","renounceRole(bytes32,address)":"36568abe","revokeRole(bytes32,address)":"d547741f","setActionAllowlist(bytes32,bool)":"23663609","setActionAllowlistByString(string,bool)":"93fd7c2a","setAllowlistEnabled(bool)":"d7644ba2","setTrustedBootstrapper(address)":"65fa88ec","supportsInterface(bytes4)":"01ffc9a7","transferOwnership(address)":"f2fde38b","trustedBootstrapper()":"23b32bf3"},"id":46}