{"abi":[{"type":"constructor","inputs":[{"name":"feeDistributor_","type":"address","internalType":"address"},{"name":"owner_","type":"address","internalType":"address"}],"stateMutability":"nonpayable"},{"type":"function","name":"DEFAULT_ADMIN_ROLE","inputs":[],"outputs":[{"name":"","type":"bytes32","internalType":"bytes32"}],"stateMutability":"view"},{"type":"function","name":"PARAM_SETTER_ROLE","inputs":[],"outputs":[{"name":"","type":"bytes32","internalType":"bytes32"}],"stateMutability":"view"},{"type":"function","name":"actionAllowlist","inputs":[{"name":"","type":"bytes32","internalType":"bytes32"}],"outputs":[{"name":"","type":"bool","internalType":"bool"}],"stateMutability":"view"},{"type":"function","name":"allowlistEnabled","inputs":[],"outputs":[{"name":"","type":"bool","internalType":"bool"}],"stateMutability":"view"},{"type":"function","name":"enableGovernanceMode","inputs":[{"name":"admin","type":"address","internalType":"address"},{"name":"paramSetter","type":"address","internalType":"address"}],"outputs":[],"stateMutability":"nonpayable"},{"type":"function","name":"feeDistributor","inputs":[],"outputs":[{"name":"","type":"address","internalType":"contract IFeeDistributor"}],"stateMutability":"view"},{"type":"function","name":"getConfig","inputs":[],"outputs":[{"name":"feeWei_","type":"uint256","internalType":"uint256"},{"name":"feeDistributor_","type":"address","internalType":"address"},{"name":"allowlistEnabled_","type":"bool","internalType":"bool"}],"stateMutability":"view"},{"type":"function","name":"getRoleAdmin","inputs":[{"name":"role","type":"bytes32","internalType":"bytes32"}],"outputs":[{"name":"","type":"bytes32","internalType":"bytes32"}],"stateMutability":"view"},{"type":"function","name":"governanceModeEnabled","inputs":[],"outputs":[{"name":"","type":"bool","internalType":"bool"}],"stateMutability":"view"},{"type":"function","name":"grantRole","inputs":[{"name":"role","type":"bytes32","internalType":"bytes32"},{"name":"account","type":"address","internalType":"address"}],"outputs":[],"stateMutability":"nonpayable"},{"type":"function","name":"hasRole","inputs":[{"name":"role","type":"bytes32","internalType":"bytes32"},{"name":"account","type":"address","internalType":"address"}],"outputs":[{"name":"","type":"bool","internalType":"bool"}],"stateMutability":"view"},{"type":"function","name":"interact","inputs":[{"name":"action","type":"string","internalType":"string"},{"name":"meta","type":"bytes","internalType":"bytes"}],"outputs":[],"stateMutability":"payable"},{"type":"function","name":"owner","inputs":[],"outputs":[{"name":"","type":"address","internalType":"address"}],"stateMutability":"view"},{"type":"function","name":"renounceOwnership","inputs":[],"outputs":[],"stateMutability":"nonpayable"},{"type":"function","name":"renounceRole","inputs":[{"name":"role","type":"bytes32","internalType":"bytes32"},{"name":"callerConfirmation","type":"address","internalType":"address"}],"outputs":[],"stateMutability":"nonpayable"},{"type":"function","name":"revokeRole","inputs":[{"name":"role","type":"bytes32","internalType":"bytes32"},{"name":"account","type":"address","internalType":"address"}],"outputs":[],"stateMutability":"nonpayable"},{"type":"function","name":"setActionAllowlist","inputs":[{"name":"actionHash","type":"bytes32","internalType":"bytes32"},{"name":"allowed","type":"bool","internalType":"bool"}],"outputs":[],"stateMutability":"nonpayable"},{"type":"function","name":"setActionAllowlistByString","inputs":[{"name":"action","type":"string","internalType":"string"},{"name":"allowed","type":"bool","internalType":"bool"}],"outputs":[],"stateMutability":"nonpayable"},{"type":"function","name":"setAllowlistEnabled","inputs":[{"name":"enabled","type":"bool","internalType":"bool"}],"outputs":[],"stateMutability":"nonpayable"},{"type":"function","name":"setTrustedBootstrapper","inputs":[{"name":"bootstrapper","type":"address","internalType":"address"}],"outputs":[],"stateMutability":"nonpayable"},{"type":"function","name":"supportsInterface","inputs":[{"name":"interfaceId","type":"bytes4","internalType":"bytes4"}],"outputs":[{"name":"","type":"bool","internalType":"bool"}],"stateMutability":"view"},{"type":"function","name":"transferOwnership","inputs":[{"name":"newOwner","type":"address","internalType":"address"}],"outputs":[],"stateMutability":"nonpayable"},{"type":"function","name":"trustedBootstrapper","inputs":[],"outputs":[{"name":"","type":"address","internalType":"address"}],"stateMutability":"view"},{"type":"event","name":"ActionAllowlistUpdated","inputs":[{"name":"actionHash","type":"bytes32","indexed":true,"internalType":"bytes32"},{"name":"allowed","type":"bool","indexed":false,"internalType":"bool"}],"anonymous":false},{"type":"event","name":"AllowlistToggled","inputs":[{"name":"enabled","type":"bool","indexed":false,"internalType":"bool"}],"anonymous":false},{"type":"event","name":"GovernanceModeEnabled","inputs":[{"name":"admin","type":"address","indexed":true,"internalType":"address"},{"name":"paramSetter","type":"address","indexed":true,"internalType":"address"}],"anonymous":false},{"type":"event","name":"InteractionRecorded","inputs":[{"name":"user","type":"address","indexed":true,"internalType":"address"},{"name":"actionHash","type":"bytes32","indexed":true,"internalType":"bytes32"},{"name":"action","type":"string","indexed":false,"internalType":"string"},{"name":"meta","type":"bytes","indexed":false,"internalType":"bytes"},{"name":"timestamp","type":"uint256","indexed":false,"internalType":"uint256"}],"anonymous":false},{"type":"event","name":"OwnershipTransferred","inputs":[{"name":"previousOwner","type":"address","indexed":true,"internalType":"address"},{"name":"newOwner","type":"address","indexed":true,"internalType":"address"}],"anonymous":false},{"type":"event","name":"RoleAdminChanged","inputs":[{"name":"role","type":"bytes32","indexed":true,"internalType":"bytes32"},{"name":"previousAdminRole","type":"bytes32","indexed":true,"internalType":"bytes32"},{"name":"newAdminRole","type":"bytes32","indexed":true,"internalType":"bytes32"}],"anonymous":false},{"type":"event","name":"RoleGranted","inputs":[{"name":"role","type":"bytes32","indexed":true,"internalType":"bytes32"},{"name":"account","type":"address","indexed":true,"internalType":"address"},{"name":"sender","type":"address","indexed":true,"internalType":"address"}],"anonymous":false},{"type":"event","name":"RoleRevoked","inputs":[{"name":"role","type":"bytes32","indexed":true,"internalType":"bytes32"},{"name":"account","type":"address","indexed":true,"internalType":"address"},{"name":"sender","type":"address","indexed":true,"internalType":"address"}],"anonymous":false},{"type":"error","name":"AccessControlBadConfirmation","inputs":[]},{"type":"error","name":"AccessControlUnauthorizedAccount","inputs":[{"name":"account","type":"address","internalType":"address"},{"name":"neededRole","type":"bytes32","internalType":"bytes32"}]},{"type":"error","name":"OwnableInvalidOwner","inputs":[{"name":"owner","type":"address","internalType":"address"}]},{"type":"error","name":"OwnableUnauthorizedAccount","inputs":[{"name":"account","type":"address","internalType":"address"}]},{"type":"error","name":"ReentrancyGuardReentrantCall","inputs":[]}],"bytecode":{"object":"0x60a060405234801562000010575f80fd5b5060405162001a5838038062001a58833981016040819052620000339162000208565b806001600160a01b0381166200006357604051631e4fbdf760e01b81525f60048201526024015b60405180910390fd5b6200006e8162000109565b5060016002556001600160a01b038216620000e75760405162461bcd60e51b815260206004820152603260248201527f496e746572616374696f6e3a206665654469737472696275746f722063616e6e6044820152716f74206265207a65726f206164647265737360701b60648201526084016200005a565b6001600160a01b038216608052620001005f8262000158565b5050506200023e565b5f80546001600160a01b038381166001600160a01b0319831681178455604051919092169283917f8be0079c531659141344cd1fd0a4f28419497f9722a3daafe3b4186f6b6457e09190a35050565b5f8281526001602090815260408083206001600160a01b038516845290915281205460ff16620001e3575f8381526001602081815260408084206001600160a01b0387168086529252808420805460ff19169093179092559051339286917f2f8788117e7eff1d82e926ec794901d17c78024a50270940304540a733656f0d9190a4506001620001e6565b505f5b92915050565b80516001600160a01b038116811462000203575f80fd5b919050565b5f80604083850312156200021a575f80fd5b6200022583620001ec565b91506200023560208401620001ec565b90509250929050565b6080516117e5620002735f395f81816101c10152818161087e01528181610a1601528181610e930152610f2501526117e55ff3fe608060405260043610610178575f3560e01c806391d14854116100d1578063bc52900b1161007c578063d547741f11610057578063d547741f146104bf578063d7644ba2146104de578063f2fde38b146104fd575f80fd5b8063bc52900b14610432578063c3f909d41461044b578063c4741b2e14610491575f80fd5b8063a217fddf116100ac578063a217fddf146103ed578063aac3ebc014610400578063b50a9da814610413575f80fd5b806391d148541461036457806393fd7c2a146103b557806394c8e4ff146103d4575f80fd5b80632f2ff15d11610131578063715018a61161010c578063715018a6146102f45780638da5cb5b1461030857806391b7cd5814610331575f80fd5b80632f2ff15d1461029757806336568abe146102b657806365fa88ec146102d5575f80fd5b80632366360911610161578063236636091461020857806323b32bf314610229578063248a9ca31461025a575f80fd5b806301ffc9a71461017c5780630d43e8ad146101b0575b5f80fd5b348015610187575f80fd5b5061019b6101963660046114d4565b61051c565b60405190151581526020015b60405180910390f35b3480156101bb575f80fd5b506101e37f000000000000000000000000000000000000000000000000000000000000000081565b60405173ffffffffffffffffffffffffffffffffffffffff90911681526020016101a7565b348015610213575f80fd5b5061022761022236600461152e565b6105b4565b005b348015610234575f80fd5b506005546101e390610100900473ffffffffffffffffffffffffffffffffffffffff1681565b348015610265575f80fd5b50610289610274366004611558565b5f908152600160208190526040909120015490565b6040519081526020016101a7565b3480156102a2575f80fd5b506102276102b1366004611592565b610630565b3480156102c1575f80fd5b506102276102d0366004611592565b61065b565b3480156102e0575f80fd5b506102276102ef3660046115b3565b6106b9565b3480156102ff575f80fd5b506102276107cb565b348015610313575f80fd5b505f5473ffffffffffffffffffffffffffffffffffffffff166101e3565b34801561033c575f80fd5b506102897f597b121aab77e221e6a68f35bfe5cd0100f93845c4f871f403c8b3592a44ea0381565b34801561036f575f80fd5b5061019b61037e366004611592565b5f91825260016020908152604080842073ffffffffffffffffffffffffffffffffffffffff93909316845291905290205460ff1690565b3480156103c0575f80fd5b506102276103cf366004611611565b6107de565b3480156103df575f80fd5b5060035461019b9060ff1681565b3480156103f8575f80fd5b506102895f81565b61022761040e366004611661565b610873565b34801561041e575f80fd5b5061022761042d3660046116c8565b610af4565b34801561043d575f80fd5b5060055461019b9060ff1681565b348015610456575f80fd5b5061045f610e8e565b6040805193845273ffffffffffffffffffffffffffffffffffffffff90921660208401521515908201526060016101a7565b34801561049c575f80fd5b5061019b6104ab366004611558565b60046020525f908152604090205460ff1681565b3480156104ca575f80fd5b506102276104d9366004611592565b610f51565b3480156104e9575f80fd5b506102276104f83660046116f0565b610f76565b348015610508575f80fd5b506102276105173660046115b3565b610fe3565b5f7fffffffff0000000000000000000000000000000000000000000000000000000082167f7965db0b0000000000000000000000000000000000000000000000000000000014806105ae57507f01ffc9a7000000000000000000000000000000000000000000000000000000007fffffffff000000000000000000000000000000000000000000000000000000008316145b92915050565b6105bc611046565b5f8281526004602090815260409182902080547fffffffffffffffffffffffffffffffffffffffffffffffffffffffffffffff0016841515908117909155915191825283917f4522f986b8e14fd0591a15360e60229275a34d3fdb9ee5a15dba05220bbdf30d910160405180910390a25050565b5f828152600160208190526040909120015461064b816111b3565b61065583836111bd565b50505050565b73ffffffffffffffffffffffffffffffffffffffff811633146106aa576040517f6697b23200000000000000000000000000000000000000000000000000000000815260040160405180910390fd5b6106b48282611285565b505050565b6106c1611342565b60055460ff161561077f576040517f08c379a000000000000000000000000000000000000000000000000000000000815260206004820152604260248201527f496e746572616374696f6e3a2063616e6e6f742073657420626f6f747374726160448201527f7070657220616674657220676f7665726e616e6365206d6f646520656e61626c60648201527f6564000000000000000000000000000000000000000000000000000000000000608482015260a4015b60405180910390fd5b6005805473ffffffffffffffffffffffffffffffffffffffff909216610100027fffffffffffffffffffffff0000000000000000000000000000000000000000ff909216919091179055565b6107d3611342565b6107dc5f611394565b565b6107e6611046565b5f83836040516107f7929190611709565b604080519182900382205f8181526004602090815292902080547fffffffffffffffffffffffffffffffffffffffffffffffffffffffffffffff00168615159081179091558352925082917f4522f986b8e14fd0591a15360e60229275a34d3fdb9ee5a15dba05220bbdf30d910160405180910390a250505050565b61087b611408565b5f7f000000000000000000000000000000000000000000000000000000000000000073ffffffffffffffffffffffffffffffffffffffff1663428c090b6040518163ffffffff1660e01b8152600401602060405180830381865afa1580156108e5573d5f803e3d5ffd5b505050506040513d601f19601f820116820180604052508101906109099190611718565b905080341015610975576040517f08c379a000000000000000000000000000000000000000000000000000000000815260206004820152601d60248201527f496e746572616374696f6e3a20696e73756666696369656e74206665650000006044820152606401610776565b5f8585604051610986929190611709565b60405190819003902060035490915060ff1615610a14575f8181526004602052604090205460ff16610a14576040517f08c379a000000000000000000000000000000000000000000000000000000000815260206004820152601f60248201527f496e746572616374696f6e3a20616374696f6e206e6f7420616c6c6f776564006044820152606401610776565b7f000000000000000000000000000000000000000000000000000000000000000073ffffffffffffffffffffffffffffffffffffffff1663fada5da1346040518263ffffffff1660e01b81526004015f604051808303818588803b158015610a7a575f80fd5b505af1158015610a8c573d5f803e3d5ffd5b5050505050803373ffffffffffffffffffffffffffffffffffffffff167fd149b38bdc70b4650d7f0d5cb5e82886629c6e870cf1bc848bab4df6f8f8ee318888888842604051610ae0959493929190611776565b60405180910390a350506106556001600255565b5f5473ffffffffffffffffffffffffffffffffffffffff163314801590610b385750600554610100900473ffffffffffffffffffffffffffffffffffffffff163314155b15610bc5576040517f08c379a000000000000000000000000000000000000000000000000000000000815260206004820152603c60248201527f496e746572616374696f6e3a2063616c6c6572206973206e6f7420746865206f60448201527f776e6572206f72207472757374656420626f6f747374726170706572000000006064820152608401610776565b60055460ff1615610c58576040517f08c379a000000000000000000000000000000000000000000000000000000000815260206004820152602c60248201527f496e746572616374696f6e3a20676f7665726e616e6365206d6f646520616c7260448201527f6561647920656e61626c656400000000000000000000000000000000000000006064820152608401610776565b73ffffffffffffffffffffffffffffffffffffffff8216610cfb576040517f08c379a000000000000000000000000000000000000000000000000000000000815260206004820152602960248201527f496e746572616374696f6e3a2061646d696e2063616e6e6f74206265207a657260448201527f6f206164647265737300000000000000000000000000000000000000000000006064820152608401610776565b73ffffffffffffffffffffffffffffffffffffffff8116610d9e576040517f08c379a000000000000000000000000000000000000000000000000000000000815260206004820152602f60248201527f496e746572616374696f6e3a20706172616d5365747465722063616e6e6f742060448201527f6265207a65726f206164647265737300000000000000000000000000000000006064820152608401610776565b600580547fffffffffffffffffffffffffffffffffffffffffffffffffffffffffffffff00166001179055610dd35f836111bd565b50610dfe7f597b121aab77e221e6a68f35bfe5cd0100f93845c4f871f403c8b3592a44ea03826111bd565b50610e265f610e215f5473ffffffffffffffffffffffffffffffffffffffff1690565b611285565b50610e3082611394565b8073ffffffffffffffffffffffffffffffffffffffff168273ffffffffffffffffffffffffffffffffffffffff167f636eebd3fa636d132c0642257636a03b90019c563c593d3c831318f9f3a7442960405160405180910390a35050565b5f805f7f000000000000000000000000000000000000000000000000000000000000000073ffffffffffffffffffffffffffffffffffffffff1663428c090b6040518163ffffffff1660e01b8152600401602060405180830381865afa158015610efa573d5f803e3d5ffd5b505050506040513d601f19601f82011682018060405250810190610f1e9190611718565b60035490947f0000000000000000000000000000000000000000000000000000000000000000945060ff90911692509050565b5f8281526001602081905260409091200154610f6c816111b3565b6106558383611285565b610f7e611046565b600380547fffffffffffffffffffffffffffffffffffffffffffffffffffffffffffffff00168215159081179091556040519081527f66538806474f0d93f78ec4085a1d343732ef04874ebdcb6608a2841f4a83738a9060200160405180910390a150565b610feb611342565b73ffffffffffffffffffffffffffffffffffffffff811661103a576040517f1e4fbdf70000000000000000000000000000000000000000000000000000000081525f6004820152602401610776565b61104381611394565b50565b60055460ff161561110e57335f9081527fdb2d0a3dd5f1671095ae85310ffbb7cc5134b90daea1d7ba34d87ef2c0dd73dc602052604090205460ff166107dc576040517f08c379a000000000000000000000000000000000000000000000000000000000815260206004820152603360248201527f496e746572616374696f6e3a2063616c6c657220646f6573206e6f742068617660448201527f6520504152414d5f5345545445525f524f4c45000000000000000000000000006064820152608401610776565b5f5473ffffffffffffffffffffffffffffffffffffffff1633146107dc576040517f08c379a0000000000000000000000000000000000000000000000000000000008152602060048201526024808201527f496e746572616374696f6e3a2063616c6c6572206973206e6f7420746865206f60448201527f776e6572000000000000000000000000000000000000000000000000000000006064820152608401610776565b6110438133611449565b5f82815260016020908152604080832073ffffffffffffffffffffffffffffffffffffffff8516845290915281205460ff1661127e575f83815260016020818152604080842073ffffffffffffffffffffffffffffffffffffffff8716808652925280842080547fffffffffffffffffffffffffffffffffffffffffffffffffffffffffffffff00169093179092559051339286917f2f8788117e7eff1d82e926ec794901d17c78024a50270940304540a733656f0d9190a45060016105ae565b505f6105ae565b5f82815260016020908152604080832073ffffffffffffffffffffffffffffffffffffffff8516845290915281205460ff161561127e575f83815260016020908152604080832073ffffffffffffffffffffffffffffffffffffffff8616808552925280832080547fffffffffffffffffffffffffffffffffffffffffffffffffffffffffffffff0016905551339286917ff6391f5c32d9c69d2a47ea670b442974b53935d1edc7fd64eb21e047a839171b9190a45060016105ae565b5f5473ffffffffffffffffffffffffffffffffffffffff1633146107dc576040517f118cdaa7000000000000000000000000000000000000000000000000000000008152336004820152602401610776565b5f805473ffffffffffffffffffffffffffffffffffffffff8381167fffffffffffffffffffffffff0000000000000000000000000000000000000000831681178455604051919092169283917f8be0079c531659141344cd1fd0a4f28419497f9722a3daafe3b4186f6b6457e09190a35050565b6002805403611443576040517f3ee5aeb500000000000000000000000000000000000000000000000000000000815260040160405180910390fd5b60028055565b5f82815260016020908152604080832073ffffffffffffffffffffffffffffffffffffffff8516845290915290205460ff166114d0576040517fe2517d3f00000000000000000000000000000000000000000000000000000000815273ffffffffffffffffffffffffffffffffffffffff8216600482015260248101839052604401610776565b5050565b5f602082840312156114e4575f80fd5b81357fffffffff0000000000000000000000000000000000000000000000000000000081168114611513575f80fd5b9392505050565b80358015158114611529575f80fd5b919050565b5f806040838503121561153f575f80fd5b8235915061154f6020840161151a565b90509250929050565b5f60208284031215611568575f80fd5b5035919050565b803573ffffffffffffffffffffffffffffffffffffffff81168114611529575f80fd5b5f80604083850312156115a3575f80fd5b8235915061154f6020840161156f565b5f602082840312156115c3575f80fd5b6115138261156f565b5f8083601f8401126115dc575f80fd5b50813567ffffffffffffffff8111156115f3575f80fd5b60208301915083602082850101111561160a575f80fd5b9250929050565b5f805f60408486031215611623575f80fd5b833567ffffffffffffffff811115611639575f80fd5b611645868287016115cc565b909450925061165890506020850161151a565b90509250925092565b5f805f8060408587031215611674575f80fd5b843567ffffffffffffffff8082111561168b575f80fd5b611697888389016115cc565b909650945060208701359150808211156116af575f80fd5b506116bc878288016115cc565b95989497509550505050565b5f80604083850312156116d9575f80fd5b6116e28361156f565b915061154f6020840161156f565b5f60208284031215611700575f80fd5b6115138261151a565b818382375f9101908152919050565b5f60208284031215611728575f80fd5b5051919050565b81835281816020850137505f602082840101525f60207fffffffffffffffffffffffffffffffffffffffffffffffffffffffffffffffe0601f840116840101905092915050565b606081525f61178960608301878961172f565b828103602084015261179c81868861172f565b915050826040830152969550505050505056fea2646970667358221220dc99c05147026f4a8dc9a753940310f0d90c914ceca917b7eba4f1d11ee59dbc64736f6c63430008180033","linkReferences":{}},"methodIdentifiers":{"DEFAULT_ADMIN_ROLE()":"a217fddf","PARAM_SETTER_ROLE()":"91b7cd58","actionAllowlist(bytes32)":"c4741b2e","allowlistEnabled()":"94c8e4ff","enableGovernanceMode(address,address)":"b50a9da8","feeDistributor()":"0d43e8ad","getConfig()":"c3f909d4","getRoleAdmin(bytes32)":"248a9ca3","governanceModeEnabled()":"bc52900b","grantRole(bytes32,address)":"2f2ff15d","hasRole(bytes32,address)":"91d14854","interact(string,bytes)":"aac3ebc0","owner()":"8da5cb5b","renounceOwnership()":"715018a6","renounceRole(bytes32,address)":"36568abe","revokeRole(bytes32,address)":"d547741f","setActionAllowlist(bytes32,bool)":"23663609","setActionAllowlistByString(string,bool)":"93fd7c2a","setAllowlistEnabled(bool)":"d7644ba2","setTrustedBootstrapper(address)":"65fa88ec","supportsInterface(bytes4)":"01ffc9a7","transferOwnership(address)":"f2fde38b","trustedBootstrapper()":"23b32bf3"},"id":50}