{"abi":[{"type":"function","name":"bootstrapBoth","inputs":[{"name":"feeDistributor","type":"address","internalType":"address"},{"name":"interaction","type":"address","internalType":"address"},{"name":"timelock","type":"address","internalType":"address"},{"name":"paramSetter","type":"address","internalType":"address"}],"outputs":[],"stateMutability":"nonpayable"},{"type":"function","name":"bootstrapFeeDistributor","inputs":[{"name":"feeDistributor","type":"address","internalType":"address"},{"name":"timelock","type":"address","internalType":"address"},{"name":"paramSetter","type":"address","internalType":"address"}],"outputs":[],"stateMutability":"nonpayable"},{"type":"function","name":"bootstrapInteraction","inputs":[{"name":"interaction","type":"address","internalType":"address"},{"name":"timelock","type":"address","internalType":"address"},{"name":"paramSetter","type":"address","internalType":"address"}],"outputs":[],"stateMutability":"nonpayable"},{"type":"event","name":"GovernanceBootstrapped","inputs":[{"name":"contractAddress","type":"address","indexed":true,"internalType":"address"},{"name":"timelock","type":"address","indexed":true,"internalType":"address"},{"name":"paramSetter","type":"address","indexed":true,"internalType":"address"}],"anonymous":false}],"bytecode":{"object":"0x608060405234801561000f575f80fd5b50610a6a8061001d5f395ff3fe608060405234801561000f575f80fd5b506004361061003f575f3560e01c80632002304114610043578063512a42d21461005857806366cfe07d14610043575b5f80fd5b610056610051366004610971565b61006b565b005b6100566100663660046109b9565b61031f565b5f8390503073ffffffffffffffffffffffffffffffffffffffff168173ffffffffffffffffffffffffffffffffffffffff166323b32bf36040518163ffffffff1660e01b8152600401602060405180830381865afa1580156100cf573d5f803e3d5ffd5b505050506040513d601f19601f820116820180604052508101906100f39190610a12565b73ffffffffffffffffffffffffffffffffffffffff16146101e7576040517f08c379a000000000000000000000000000000000000000000000000000000000815260206004820152607460248201527f476f7665726e616e6365426f6f7473747261707065723a206e6f74207365742060448201527f6173207472757374656420626f6f7473747261707065722e204f776e6572206d60648201527f7573742063616c6c2073657454727573746564426f6f7473747261707065722860848201527f616464726573732874686973292920666972737400000000000000000000000060a482015260c4015b60405180910390fd5b3373ffffffffffffffffffffffffffffffffffffffff168473ffffffffffffffffffffffffffffffffffffffff16638da5cb5b6040518163ffffffff1660e01b8152600401602060405180830381865afa158015610247573d5f803e3d5ffd5b505050506040513d601f19601f8201168201806040525081019061026b9190610a12565b73ffffffffffffffffffffffffffffffffffffffff161461030e576040517f08c379a000000000000000000000000000000000000000000000000000000000815260206004820152602f60248201527f476f7665726e616e6365426f6f7473747261707065723a2063616c6c6572206960448201527f73206e6f7420746865206f776e6572000000000000000000000000000000000060648201526084016101de565b610319848484610853565b50505050565b5f8490505f8490503073ffffffffffffffffffffffffffffffffffffffff168273ffffffffffffffffffffffffffffffffffffffff166323b32bf36040518163ffffffff1660e01b8152600401602060405180830381865afa158015610387573d5f803e3d5ffd5b505050506040513d601f19601f820116820180604052508101906103ab9190610a12565b73ffffffffffffffffffffffffffffffffffffffff1614610474576040517f08c379a000000000000000000000000000000000000000000000000000000000815260206004820152604a60248201527f476f7665726e616e6365426f6f7473747261707065723a206e6f74207365742060448201527f6173207472757374656420626f6f74737472617070657220666f72204665654460648201527f69737472696275746f7200000000000000000000000000000000000000000000608482015260a4016101de565b3073ffffffffffffffffffffffffffffffffffffffff168173ffffffffffffffffffffffffffffffffffffffff166323b32bf36040518163ffffffff1660e01b8152600401602060405180830381865afa1580156104d4573d5f803e3d5ffd5b505050506040513d601f19601f820116820180604052508101906104f89190610a12565b73ffffffffffffffffffffffffffffffffffffffff16146105c1576040517f08c379a000000000000000000000000000000000000000000000000000000000815260206004820152604760248201527f476f7665726e616e6365426f6f7473747261707065723a206e6f74207365742060448201527f6173207472757374656420626f6f74737472617070657220666f7220496e746560648201527f72616374696f6e00000000000000000000000000000000000000000000000000608482015260a4016101de565b3373ffffffffffffffffffffffffffffffffffffffff168673ffffffffffffffffffffffffffffffffffffffff16638da5cb5b6040518163ffffffff1660e01b8152600401602060405180830381865afa158015610621573d5f803e3d5ffd5b505050506040513d601f19601f820116820180604052508101906106459190610a12565b73ffffffffffffffffffffffffffffffffffffffff161461070e576040517f08c379a000000000000000000000000000000000000000000000000000000000815260206004820152604160248201527f476f7665726e616e6365426f6f7473747261707065723a2063616c6c6572206960448201527f73206e6f7420746865206f776e6572206f66204665654469737472696275746f60648201527f7200000000000000000000000000000000000000000000000000000000000000608482015260a4016101de565b3373ffffffffffffffffffffffffffffffffffffffff168573ffffffffffffffffffffffffffffffffffffffff16638da5cb5b6040518163ffffffff1660e01b8152600401602060405180830381865afa15801561076e573d5f803e3d5ffd5b505050506040513d601f19601f820116820180604052508101906107929190610a12565b73ffffffffffffffffffffffffffffffffffffffff1614610835576040517f08c379a000000000000000000000000000000000000000000000000000000000815260206004820152603e60248201527f476f7665726e616e6365426f6f7473747261707065723a2063616c6c6572206960448201527f73206e6f7420746865206f776e6572206f6620496e746572616374696f6e000060648201526084016101de565b610840868585610853565b61084b858585610853565b505050505050565b6040517fb50a9da800000000000000000000000000000000000000000000000000000000815273ffffffffffffffffffffffffffffffffffffffff8381166004830152828116602483015284169063b50a9da8906044015f604051808303815f87803b1580156108c1575f80fd5b505af11580156108d3573d5f803e3d5ffd5b505050508073ffffffffffffffffffffffffffffffffffffffff168273ffffffffffffffffffffffffffffffffffffffff168473ffffffffffffffffffffffffffffffffffffffff167f078f58f626a7c8f7b6b46771815a888542e0af088a681e94650424b4f618d26560405160405180910390a4505050565b73ffffffffffffffffffffffffffffffffffffffff8116811461096e575f80fd5b50565b5f805f60608486031215610983575f80fd5b833561098e8161094d565b9250602084013561099e8161094d565b915060408401356109ae8161094d565b809150509250925092565b5f805f80608085870312156109cc575f80fd5b84356109d78161094d565b935060208501356109e78161094d565b925060408501356109f78161094d565b91506060850135610a078161094d565b939692955090935050565b5f60208284031215610a22575f80fd5b8151610a2d8161094d565b939250505056fea2646970667358221220d3ec3bbc60bcc149b6fda7344f2cf49225a49f3ab969032b85cbee0ac45d0dfb64736f6c63430008180033","linkReferences":{}},"methodIdentifiers":{"bootstrapBoth(address,address,address,address)":"512a42d2","bootstrapFeeDistributor(address,address,address)":"66cfe07d","bootstrapInteraction(address,address,address)":"20023041"},"id":47}